{
  "contractName": "BridgeBSC",
  "abi": [
    {
      "inputs": [
        {
          "internalType": "address",
          "name": "_token",
          "type": "address"
        },
        {
          "internalType": "address",
          "name": "admin",
          "type": "address"
        }
      ],
      "stateMutability": "nonpayable",
      "type": "constructor"
    },
    {
      "anonymous": false,
      "inputs": [
        {
          "indexed": false,
          "internalType": "address",
          "name": "to",
          "type": "address"
        },
        {
          "indexed": false,
          "internalType": "uint256",
          "name": "amount",
          "type": "uint256"
        },
        {
          "indexed": false,
          "internalType": "uint256",
          "name": "date",
          "type": "uint256"
        },
        {
          "indexed": false,
          "internalType": "uint256",
          "name": "nonce",
          "type": "uint256"
        }
      ],
      "name": "ReturningToBSC",
      "type": "event"
    },
    {
      "anonymous": false,
      "inputs": [
        {
          "indexed": true,
          "internalType": "bytes32",
          "name": "role",
          "type": "bytes32"
        },
        {
          "indexed": true,
          "internalType": "bytes32",
          "name": "previousAdminRole",
          "type": "bytes32"
        },
        {
          "indexed": true,
          "internalType": "bytes32",
          "name": "newAdminRole",
          "type": "bytes32"
        }
      ],
      "name": "RoleAdminChanged",
      "type": "event"
    },
    {
      "anonymous": false,
      "inputs": [
        {
          "indexed": true,
          "internalType": "bytes32",
          "name": "role",
          "type": "bytes32"
        },
        {
          "indexed": true,
          "internalType": "address",
          "name": "account",
          "type": "address"
        },
        {
          "indexed": true,
          "internalType": "address",
          "name": "sender",
          "type": "address"
        }
      ],
      "name": "RoleGranted",
      "type": "event"
    },
    {
      "anonymous": false,
      "inputs": [
        {
          "indexed": true,
          "internalType": "bytes32",
          "name": "role",
          "type": "bytes32"
        },
        {
          "indexed": true,
          "internalType": "address",
          "name": "account",
          "type": "address"
        },
        {
          "indexed": true,
          "internalType": "address",
          "name": "sender",
          "type": "address"
        }
      ],
      "name": "RoleRevoked",
      "type": "event"
    },
    {
      "anonymous": false,
      "inputs": [
        {
          "indexed": false,
          "internalType": "address",
          "name": "to",
          "type": "address"
        },
        {
          "indexed": false,
          "internalType": "uint256",
          "name": "amount",
          "type": "uint256"
        },
        {
          "indexed": false,
          "internalType": "uint256",
          "name": "date",
          "type": "uint256"
        },
        {
          "indexed": false,
          "internalType": "uint256",
          "name": "nonce",
          "type": "uint256"
        }
      ],
      "name": "TransferingToEth",
      "type": "event"
    },
    {
      "inputs": [],
      "name": "ADMIN_ROLE",
      "outputs": [
        {
          "internalType": "bytes32",
          "name": "",
          "type": "bytes32"
        }
      ],
      "stateMutability": "view",
      "type": "function"
    },
    {
      "inputs": [],
      "name": "DEFAULT_ADMIN_ROLE",
      "outputs": [
        {
          "internalType": "bytes32",
          "name": "",
          "type": "bytes32"
        }
      ],
      "stateMutability": "view",
      "type": "function"
    },
    {
      "inputs": [
        {
          "internalType": "bytes32",
          "name": "role",
          "type": "bytes32"
        }
      ],
      "name": "getRoleAdmin",
      "outputs": [
        {
          "internalType": "bytes32",
          "name": "",
          "type": "bytes32"
        }
      ],
      "stateMutability": "view",
      "type": "function"
    },
    {
      "inputs": [
        {
          "internalType": "bytes32",
          "name": "role",
          "type": "bytes32"
        },
        {
          "internalType": "address",
          "name": "account",
          "type": "address"
        }
      ],
      "name": "grantRole",
      "outputs": [],
      "stateMutability": "nonpayable",
      "type": "function"
    },
    {
      "inputs": [
        {
          "internalType": "bytes32",
          "name": "role",
          "type": "bytes32"
        },
        {
          "internalType": "address",
          "name": "account",
          "type": "address"
        }
      ],
      "name": "hasRole",
      "outputs": [
        {
          "internalType": "bool",
          "name": "",
          "type": "bool"
        }
      ],
      "stateMutability": "view",
      "type": "function"
    },
    {
      "inputs": [],
      "name": "nonce",
      "outputs": [
        {
          "internalType": "uint256",
          "name": "",
          "type": "uint256"
        }
      ],
      "stateMutability": "view",
      "type": "function"
    },
    {
      "inputs": [
        {
          "internalType": "uint256",
          "name": "",
          "type": "uint256"
        }
      ],
      "name": "processedNonces",
      "outputs": [
        {
          "internalType": "bool",
          "name": "",
          "type": "bool"
        }
      ],
      "stateMutability": "view",
      "type": "function"
    },
    {
      "inputs": [
        {
          "internalType": "bytes32",
          "name": "role",
          "type": "bytes32"
        },
        {
          "internalType": "address",
          "name": "account",
          "type": "address"
        }
      ],
      "name": "renounceRole",
      "outputs": [],
      "stateMutability": "nonpayable",
      "type": "function"
    },
    {
      "inputs": [
        {
          "internalType": "bytes32",
          "name": "role",
          "type": "bytes32"
        },
        {
          "internalType": "address",
          "name": "account",
          "type": "address"
        }
      ],
      "name": "revokeRole",
      "outputs": [],
      "stateMutability": "nonpayable",
      "type": "function"
    },
    {
      "inputs": [
        {
          "internalType": "bytes4",
          "name": "interfaceId",
          "type": "bytes4"
        }
      ],
      "name": "supportsInterface",
      "outputs": [
        {
          "internalType": "bool",
          "name": "",
          "type": "bool"
        }
      ],
      "stateMutability": "view",
      "type": "function"
    },
    {
      "inputs": [],
      "name": "token",
      "outputs": [
        {
          "internalType": "contract IZeroChainToken",
          "name": "",
          "type": "address"
        }
      ],
      "stateMutability": "view",
      "type": "function"
    },
    {
      "inputs": [
        {
          "internalType": "address",
          "name": "admin",
          "type": "address"
        }
      ],
      "name": "hasAdminRole",
      "outputs": [
        {
          "internalType": "bool",
          "name": "",
          "type": "bool"
        }
      ],
      "stateMutability": "view",
      "type": "function"
    },
    {
      "inputs": [
        {
          "internalType": "address",
          "name": "to",
          "type": "address"
        },
        {
          "internalType": "uint256",
          "name": "amount",
          "type": "uint256"
        }
      ],
      "name": "transferToEth",
      "outputs": [],
      "stateMutability": "nonpayable",
      "type": "function"
    },
    {
      "inputs": [
        {
          "internalType": "address",
          "name": "to",
          "type": "address"
        },
        {
          "internalType": "uint256",
          "name": "amount",
          "type": "uint256"
        },
        {
          "internalType": "uint256",
          "name": "otherChainNonce",
          "type": "uint256"
        }
      ],
      "name": "returnToBSC",
      "outputs": [],
      "stateMutability": "nonpayable",
      "type": "function"
    }
  ],
  "bytecode": "0x60806040527fa49807205ce4d355092ef5a8a18f56e8913cf4a201fbe287825b095693c217756001553480156200003557600080fd5b50604051620019343803806200193483398181016040528101906200005b919062000248565b81600260006101000a81548173ffffffffffffffffffffffffffffffffffffffff021916908373ffffffffffffffffffffffffffffffffffffffff160217905550620000b060015482620000b860201b60201c565b5050620002d7565b620000ca8282620000ce60201b60201c565b5050565b620000e08282620001bf60201b60201c565b620001bb57600160008084815260200190815260200160002060000160008373ffffffffffffffffffffffffffffffffffffffff1673ffffffffffffffffffffffffffffffffffffffff16815260200190815260200160002060006101000a81548160ff021916908315150217905550620001606200022960201b60201c565b73ffffffffffffffffffffffffffffffffffffffff168173ffffffffffffffffffffffffffffffffffffffff16837f2f8788117e7eff1d82e926ec794901d17c78024a50270940304540a733656f0d60405160405180910390a45b5050565b600080600084815260200190815260200160002060000160008373ffffffffffffffffffffffffffffffffffffffff1673ffffffffffffffffffffffffffffffffffffffff16815260200190815260200160002060009054906101000a900460ff16905092915050565b600033905090565b6000815190506200024281620002bd565b92915050565b600080604083850312156200025c57600080fd5b60006200026c8582860162000231565b92505060206200027f8582860162000231565b9150509250929050565b600062000296826200029d565b9050919050565b600073ffffffffffffffffffffffffffffffffffffffff82169050919050565b620002c88162000289565b8114620002d457600080fd5b50565b61164d80620002e76000396000f3fe608060405234801561001057600080fd5b50600436106100ea5760003560e01c8063a217fddf1161008c578063c395fcb311610066578063c395fcb31461025d578063d547741f1461028d578063fada5445146102a9578063fc0c546a146102c5576100ea565b8063a217fddf14610205578063affed0e014610223578063c1f32e8c14610241576100ea565b806336568abe116100c857806336568abe1461016b57806375b238fc1461018757806391d14854146101a557806391dae519146101d5576100ea565b806301ffc9a7146100ef578063248a9ca31461011f5780632f2ff15d1461014f575b600080fd5b61010960048036038101906101049190610ef9565b6102e3565b604051610116919061124e565b60405180910390f35b61013960048036038101906101349190610e94565b61035d565b6040516101469190611269565b60405180910390f35b61016960048036038101906101649190610ebd565b61037c565b005b61018560048036038101906101809190610ebd565b6103a5565b005b61018f610428565b60405161019c9190611269565b60405180910390f35b6101bf60048036038101906101ba9190610ebd565b61042e565b6040516101cc919061124e565b60405180910390f35b6101ef60048036038101906101ea9190610f22565b610498565b6040516101fc919061124e565b60405180910390f35b61020d6104b8565b60405161021a9190611269565b60405180910390f35b61022b6104bf565b6040516102389190611341565b60405180910390f35b61025b60048036038101906102569190610e09565b6104c5565b005b61027760048036038101906102729190610de0565b6105af565b604051610284919061124e565b60405180910390f35b6102a760048036038101906102a29190610ebd565b6105c4565b005b6102c360048036038101906102be9190610e45565b6105ed565b005b6102cd61079c565b6040516102da9190611284565b60405180910390f35b60007f7965db0b000000000000000000000000000000000000000000000000000000007bffffffffffffffffffffffffffffffffffffffffffffffffffffffff1916827bffffffffffffffffffffffffffffffffffffffffffffffffffffffff191614806103565750610355826107c2565b5b9050919050565b6000806000838152602001908152602001600020600101549050919050565b6103858261035d565b6103968161039161082c565b610834565b6103a083836108d1565b505050565b6103ad61082c565b73ffffffffffffffffffffffffffffffffffffffff168173ffffffffffffffffffffffffffffffffffffffff161461041a576040517f08c379a000000000000000000000000000000000000000000000000000000000815260040161041190611321565b60405180910390fd5b61042482826109b1565b5050565b60015481565b600080600084815260200190815260200160002060000160008373ffffffffffffffffffffffffffffffffffffffff1673ffffffffffffffffffffffffffffffffffffffff16815260200190815260200160002060009054906101000a900460ff16905092915050565b60046020528060005260406000206000915054906101000a900460ff1681565b6000801b81565b60035481565b600260009054906101000a900473ffffffffffffffffffffffffffffffffffffffff1673ffffffffffffffffffffffffffffffffffffffff16639dc29fac33836040518363ffffffff1660e01b81526004016105229291906111e0565b600060405180830381600087803b15801561053c57600080fd5b505af1158015610550573d6000803e3d6000fd5b505050507f3d510fdda1b9610226250d0009fbcc5f9d217e12de56e5ddd0c9df74a6f29f1a82824260035460405161058b9493929190611209565b60405180910390a1600360008154809291906105a690611532565b91905055505050565b60006105bd6001548361042e565b9050919050565b6105cd8261035d565b6105de816105d961082c565b610834565b6105e883836109b1565b505050565b6105f96001543361042e565b610638576040517f08c379a000000000000000000000000000000000000000000000000000000000815260040161062f90611301565b60405180910390fd5b600015156004600083815260200190815260200160002060009054906101000a900460ff1615151461069f576040517f08c379a0000000000000000000000000000000000000000000000000000000008152600401610696906112e1565b60405180910390fd5b60016004600083815260200190815260200160002060006101000a81548160ff021916908315150217905550600260009054906101000a900473ffffffffffffffffffffffffffffffffffffffff1673ffffffffffffffffffffffffffffffffffffffff166340c10f1984846040518363ffffffff1660e01b81526004016107289291906111e0565b600060405180830381600087803b15801561074257600080fd5b505af1158015610756573d6000803e3d6000fd5b505050507f08560e371a5082052eeafc2dd560f741b4a4a3e47e8041249cc324e969b1113a8383428460405161078f9493929190611209565b60405180910390a1505050565b600260009054906101000a900473ffffffffffffffffffffffffffffffffffffffff1681565b60007f01ffc9a7000000000000000000000000000000000000000000000000000000007bffffffffffffffffffffffffffffffffffffffffffffffffffffffff1916827bffffffffffffffffffffffffffffffffffffffffffffffffffffffff1916149050919050565b600033905090565b61083e828261042e565b6108cd576108638173ffffffffffffffffffffffffffffffffffffffff166014610a92565b6108718360001c6020610a92565b6040516020016108829291906111a6565b6040516020818303038152906040526040517f08c379a00000000000000000000000000000000000000000000000000000000081526004016108c4919061129f565b60405180910390fd5b5050565b6108db828261042e565b6109ad57600160008084815260200190815260200160002060000160008373ffffffffffffffffffffffffffffffffffffffff1673ffffffffffffffffffffffffffffffffffffffff16815260200190815260200160002060006101000a81548160ff02191690831515021790555061095261082c565b73ffffffffffffffffffffffffffffffffffffffff168173ffffffffffffffffffffffffffffffffffffffff16837f2f8788117e7eff1d82e926ec794901d17c78024a50270940304540a733656f0d60405160405180910390a45b5050565b6109bb828261042e565b15610a8e57600080600084815260200190815260200160002060000160008373ffffffffffffffffffffffffffffffffffffffff1673ffffffffffffffffffffffffffffffffffffffff16815260200190815260200160002060006101000a81548160ff021916908315150217905550610a3361082c565b73ffffffffffffffffffffffffffffffffffffffff168173ffffffffffffffffffffffffffffffffffffffff16837ff6391f5c32d9c69d2a47ea670b442974b53935d1edc7fd64eb21e047a839171b60405160405180910390a45b5050565b606060006002836002610aa591906113d9565b610aaf9190611383565b67ffffffffffffffff811115610aee577f4e487b7100000000000000000000000000000000000000000000000000000000600052604160045260246000fd5b6040519080825280601f01601f191660200182016040528015610b205781602001600182028036833780820191505090505b5090507f300000000000000000000000000000000000000000000000000000000000000081600081518110610b7e577f4e487b7100000000000000000000000000000000000000000000000000000000600052603260045260246000fd5b60200101907effffffffffffffffffffffffffffffffffffffffffffffffffffffffffffff1916908160001a9053507f780000000000000000000000000000000000000000000000000000000000000081600181518110610c08577f4e487b7100000000000000000000000000000000000000000000000000000000600052603260045260246000fd5b60200101907effffffffffffffffffffffffffffffffffffffffffffffffffffffffffffff1916908160001a90535060006001846002610c4891906113d9565b610c529190611383565b90505b6001811115610d3e577f3031323334353637383961626364656600000000000000000000000000000000600f861660108110610cba577f4e487b7100000000000000000000000000000000000000000000000000000000600052603260045260246000fd5b1a60f81b828281518110610cf7577f4e487b7100000000000000000000000000000000000000000000000000000000600052603260045260246000fd5b60200101907effffffffffffffffffffffffffffffffffffffffffffffffffffffffffffff1916908160001a905350600485901c945080610d3790611508565b9050610c55565b5060008414610d82576040517f08c379a0000000000000000000000000000000000000000000000000000000008152600401610d79906112c1565b60405180910390fd5b8091505092915050565b600081359050610d9b816115bb565b92915050565b600081359050610db0816115d2565b92915050565b600081359050610dc5816115e9565b92915050565b600081359050610dda81611600565b92915050565b600060208284031215610df257600080fd5b6000610e0084828501610d8c565b91505092915050565b60008060408385031215610e1c57600080fd5b6000610e2a85828601610d8c565b9250506020610e3b85828601610dcb565b9150509250929050565b600080600060608486031215610e5a57600080fd5b6000610e6886828701610d8c565b9350506020610e7986828701610dcb565b9250506040610e8a86828701610dcb565b9150509250925092565b600060208284031215610ea657600080fd5b6000610eb484828501610da1565b91505092915050565b60008060408385031215610ed057600080fd5b6000610ede85828601610da1565b9250506020610eef85828601610d8c565b9150509250929050565b600060208284031215610f0b57600080fd5b6000610f1984828501610db6565b91505092915050565b600060208284031215610f3457600080fd5b6000610f4284828501610dcb565b91505092915050565b610f5481611433565b82525050565b610f6381611445565b82525050565b610f7281611451565b82525050565b610f81816114b1565b82525050565b6000610f928261135c565b610f9c8185611367565b9350610fac8185602086016114d5565b610fb5816115aa565b840191505092915050565b6000610fcb8261135c565b610fd58185611378565b9350610fe58185602086016114d5565b80840191505092915050565b6000610ffe602083611367565b91507f537472696e67733a20686578206c656e67746820696e73756666696369656e746000830152602082019050919050565b600061103e601a83611367565b91507f7472616e7366657220616c72656164792070726f6365737365640000000000006000830152602082019050919050565b600061107e601683611367565b91507f43616c6c6572206973206e6f7420616e2061646d696e000000000000000000006000830152602082019050919050565b60006110be601783611378565b91507f416363657373436f6e74726f6c3a206163636f756e74200000000000000000006000830152601782019050919050565b60006110fe601183611378565b91507f206973206d697373696e6720726f6c65200000000000000000000000000000006000830152601182019050919050565b600061113e602f83611367565b91507f416363657373436f6e74726f6c3a2063616e206f6e6c792072656e6f756e636560008301527f20726f6c657320666f722073656c6600000000000000000000000000000000006020830152604082019050919050565b6111a0816114a7565b82525050565b60006111b1826110b1565b91506111bd8285610fc0565b91506111c8826110f1565b91506111d48284610fc0565b91508190509392505050565b60006040820190506111f56000830185610f4b565b6112026020830184611197565b9392505050565b600060808201905061121e6000830187610f4b565b61122b6020830186611197565b6112386040830185611197565b6112456060830184611197565b95945050505050565b60006020820190506112636000830184610f5a565b92915050565b600060208201905061127e6000830184610f69565b92915050565b60006020820190506112996000830184610f78565b92915050565b600060208201905081810360008301526112b98184610f87565b905092915050565b600060208201905081810360008301526112da81610ff1565b9050919050565b600060208201905081810360008301526112fa81611031565b9050919050565b6000602082019050818103600083015261131a81611071565b9050919050565b6000602082019050818103600083015261133a81611131565b9050919050565b60006020820190506113566000830184611197565b92915050565b600081519050919050565b600082825260208201905092915050565b600081905092915050565b600061138e826114a7565b9150611399836114a7565b9250827fffffffffffffffffffffffffffffffffffffffffffffffffffffffffffffffff038211156113ce576113cd61157b565b5b828201905092915050565b60006113e4826114a7565b91506113ef836114a7565b9250817fffffffffffffffffffffffffffffffffffffffffffffffffffffffffffffffff04831182151516156114285761142761157b565b5b828202905092915050565b600061143e82611487565b9050919050565b60008115159050919050565b6000819050919050565b60007fffffffff0000000000000000000000000000000000000000000000000000000082169050919050565b600073ffffffffffffffffffffffffffffffffffffffff82169050919050565b6000819050919050565b60006114bc826114c3565b9050919050565b60006114ce82611487565b9050919050565b60005b838110156114f35780820151818401526020810190506114d8565b83811115611502576000848401525b50505050565b6000611513826114a7565b915060008214156115275761152661157b565b5b600182039050919050565b600061153d826114a7565b91507fffffffffffffffffffffffffffffffffffffffffffffffffffffffffffffffff8214156115705761156f61157b565b5b600182019050919050565b7f4e487b7100000000000000000000000000000000000000000000000000000000600052601160045260246000fd5b6000601f19601f8301169050919050565b6115c481611433565b81146115cf57600080fd5b50565b6115db81611451565b81146115e657600080fd5b50565b6115f28161145b565b81146115fd57600080fd5b50565b611609816114a7565b811461161457600080fd5b5056fea2646970667358221220d0030463a87b878ed7f567a3737f1f71e986cd8e4b8c53a148d50c83d0bf242564736f6c63430008000033",
  "immutableReferences": {},
  "source": "// SPDX-License-Identifier: MIT\n\npragma solidity ^0.8.0;\n\nimport \"@openzeppelin/contracts/access/AccessControl.sol\";\nimport '@openzeppelin/contracts/token/ERC20/IERC20.sol';\nimport './interfaces/IZeroChainToken.sol';\n\ncontract BridgeBSC is AccessControl{\n  bytes32 public ADMIN_ROLE = keccak256(\"ADMIN_ROLE\");\n\n  IZeroChainToken public token;\n  uint public nonce;\n  mapping(uint => bool) public processedNonces;\n\n  event TransferingToEth(\n    address to,\n    uint amount,\n    uint date,\n    uint nonce\n  );\n\n  event ReturningToBSC(\n    address to,\n    uint amount,\n    uint date,\n    uint nonce\n  );\n\n  constructor(address _token, address admin) {\n    token = IZeroChainToken(_token);\n\n    _setupRole(ADMIN_ROLE, admin);\n  }\n\n  function hasAdminRole (address admin) public view returns(bool) {\n      return hasRole(ADMIN_ROLE, admin);\n  }\n\n  function transferToEth(address to, uint amount) external {\n    token.burn(msg.sender, amount);\n    emit TransferingToEth(\n      to,\n      amount,\n      block.timestamp,\n      nonce\n    );\n    nonce++;\n  }\n\n  function returnToBSC(address to, uint amount, uint otherChainNonce) external {\n    require(hasRole(ADMIN_ROLE, msg.sender), \"Caller is not an admin\");\n    require(processedNonces[otherChainNonce] == false, 'transfer already processed');\n    processedNonces[otherChainNonce] = true;\n    token.mint(to, amount);\n    emit ReturningToBSC(\n      to,\n      amount,\n      block.timestamp,\n      otherChainNonce\n    );\n  }\n}",
  "sourcePath": "/Users/christopherdancy/Blockchain/0chain/contracts/BridgeBSC.sol",
  "compiler": {
    "name": "solc",
    "version": "0.8.0+commit.c7dfd78e.Emscripten.clang"
  },
  "schemaVersion": "3.3.1",
  "updatedAt": "2021-06-01T20:29:15.759Z",
  "devdoc": {
    "kind": "dev",
    "methods": {
      "getRoleAdmin(bytes32)": {
        "details": "Returns the admin role that controls `role`. See {grantRole} and {revokeRole}. To change a role's admin, use {_setRoleAdmin}."
      },
      "grantRole(bytes32,address)": {
        "details": "Grants `role` to `account`. If `account` had not been already granted `role`, emits a {RoleGranted} event. Requirements: - the caller must have ``role``'s admin role."
      },
      "hasRole(bytes32,address)": {
        "details": "Returns `true` if `account` has been granted `role`."
      },
      "renounceRole(bytes32,address)": {
        "details": "Revokes `role` from the calling account. Roles are often managed via {grantRole} and {revokeRole}: this function's purpose is to provide a mechanism for accounts to lose their privileges if they are compromised (such as when a trusted device is misplaced). If the calling account had been granted `role`, emits a {RoleRevoked} event. Requirements: - the caller must be `account`."
      },
      "revokeRole(bytes32,address)": {
        "details": "Revokes `role` from `account`. If `account` had been granted `role`, emits a {RoleRevoked} event. Requirements: - the caller must have ``role``'s admin role."
      },
      "supportsInterface(bytes4)": {
        "details": "See {IERC165-supportsInterface}."
      }
    },
    "version": 1
  },
  "userdoc": {
    "kind": "user",
    "methods": {},
    "version": 1
  }
}