{
  "contractName": "BridgeBSC",
  "abi": [
    {
      "inputs": [
        {
          "internalType": "address",
          "name": "_token",
          "type": "address"
        },
        {
          "internalType": "address",
          "name": "minter",
          "type": "address"
        },
        {
          "internalType": "address",
          "name": "admin",
          "type": "address"
        }
      ],
      "stateMutability": "nonpayable",
      "type": "constructor"
    },
    {
      "anonymous": false,
      "inputs": [
        {
          "indexed": true,
          "internalType": "bytes32",
          "name": "role",
          "type": "bytes32"
        },
        {
          "indexed": true,
          "internalType": "bytes32",
          "name": "previousAdminRole",
          "type": "bytes32"
        },
        {
          "indexed": true,
          "internalType": "bytes32",
          "name": "newAdminRole",
          "type": "bytes32"
        }
      ],
      "name": "RoleAdminChanged",
      "type": "event"
    },
    {
      "anonymous": false,
      "inputs": [
        {
          "indexed": true,
          "internalType": "bytes32",
          "name": "role",
          "type": "bytes32"
        },
        {
          "indexed": true,
          "internalType": "address",
          "name": "account",
          "type": "address"
        },
        {
          "indexed": true,
          "internalType": "address",
          "name": "sender",
          "type": "address"
        }
      ],
      "name": "RoleGranted",
      "type": "event"
    },
    {
      "anonymous": false,
      "inputs": [
        {
          "indexed": true,
          "internalType": "bytes32",
          "name": "role",
          "type": "bytes32"
        },
        {
          "indexed": true,
          "internalType": "address",
          "name": "account",
          "type": "address"
        },
        {
          "indexed": true,
          "internalType": "address",
          "name": "sender",
          "type": "address"
        }
      ],
      "name": "RoleRevoked",
      "type": "event"
    },
    {
      "anonymous": false,
      "inputs": [
        {
          "indexed": false,
          "internalType": "address",
          "name": "from",
          "type": "address"
        },
        {
          "indexed": false,
          "internalType": "address",
          "name": "to",
          "type": "address"
        },
        {
          "indexed": false,
          "internalType": "uint256",
          "name": "amount",
          "type": "uint256"
        },
        {
          "indexed": false,
          "internalType": "uint256",
          "name": "date",
          "type": "uint256"
        },
        {
          "indexed": false,
          "internalType": "uint256",
          "name": "nonce",
          "type": "uint256"
        },
        {
          "indexed": true,
          "internalType": "enum BridgeBSC.Step",
          "name": "step",
          "type": "uint8"
        }
      ],
      "name": "Transfer",
      "type": "event"
    },
    {
      "inputs": [],
      "name": "ADMIN_ROLE",
      "outputs": [
        {
          "internalType": "bytes32",
          "name": "",
          "type": "bytes32"
        }
      ],
      "stateMutability": "view",
      "type": "function"
    },
    {
      "inputs": [],
      "name": "DEFAULT_ADMIN_ROLE",
      "outputs": [
        {
          "internalType": "bytes32",
          "name": "",
          "type": "bytes32"
        }
      ],
      "stateMutability": "view",
      "type": "function"
    },
    {
      "inputs": [],
      "name": "MINTER_ROLE",
      "outputs": [
        {
          "internalType": "bytes32",
          "name": "",
          "type": "bytes32"
        }
      ],
      "stateMutability": "view",
      "type": "function"
    },
    {
      "inputs": [
        {
          "internalType": "bytes32",
          "name": "role",
          "type": "bytes32"
        }
      ],
      "name": "getRoleAdmin",
      "outputs": [
        {
          "internalType": "bytes32",
          "name": "",
          "type": "bytes32"
        }
      ],
      "stateMutability": "view",
      "type": "function"
    },
    {
      "inputs": [
        {
          "internalType": "bytes32",
          "name": "role",
          "type": "bytes32"
        },
        {
          "internalType": "address",
          "name": "account",
          "type": "address"
        }
      ],
      "name": "grantRole",
      "outputs": [],
      "stateMutability": "nonpayable",
      "type": "function"
    },
    {
      "inputs": [
        {
          "internalType": "bytes32",
          "name": "role",
          "type": "bytes32"
        },
        {
          "internalType": "address",
          "name": "account",
          "type": "address"
        }
      ],
      "name": "hasRole",
      "outputs": [
        {
          "internalType": "bool",
          "name": "",
          "type": "bool"
        }
      ],
      "stateMutability": "view",
      "type": "function"
    },
    {
      "inputs": [],
      "name": "nonce",
      "outputs": [
        {
          "internalType": "uint256",
          "name": "",
          "type": "uint256"
        }
      ],
      "stateMutability": "view",
      "type": "function"
    },
    {
      "inputs": [
        {
          "internalType": "uint256",
          "name": "",
          "type": "uint256"
        }
      ],
      "name": "processedNonces",
      "outputs": [
        {
          "internalType": "bool",
          "name": "",
          "type": "bool"
        }
      ],
      "stateMutability": "view",
      "type": "function"
    },
    {
      "inputs": [
        {
          "internalType": "bytes32",
          "name": "role",
          "type": "bytes32"
        },
        {
          "internalType": "address",
          "name": "account",
          "type": "address"
        }
      ],
      "name": "renounceRole",
      "outputs": [],
      "stateMutability": "nonpayable",
      "type": "function"
    },
    {
      "inputs": [
        {
          "internalType": "bytes32",
          "name": "role",
          "type": "bytes32"
        },
        {
          "internalType": "address",
          "name": "account",
          "type": "address"
        }
      ],
      "name": "revokeRole",
      "outputs": [],
      "stateMutability": "nonpayable",
      "type": "function"
    },
    {
      "inputs": [
        {
          "internalType": "bytes4",
          "name": "interfaceId",
          "type": "bytes4"
        }
      ],
      "name": "supportsInterface",
      "outputs": [
        {
          "internalType": "bool",
          "name": "",
          "type": "bool"
        }
      ],
      "stateMutability": "view",
      "type": "function"
    },
    {
      "inputs": [],
      "name": "token",
      "outputs": [
        {
          "internalType": "contract IMintBurn",
          "name": "",
          "type": "address"
        }
      ],
      "stateMutability": "view",
      "type": "function"
    },
    {
      "inputs": [
        {
          "internalType": "address",
          "name": "to_",
          "type": "address"
        },
        {
          "internalType": "uint256",
          "name": "amount_",
          "type": "uint256"
        }
      ],
      "name": "transferToETH",
      "outputs": [],
      "stateMutability": "nonpayable",
      "type": "function"
    },
    {
      "inputs": [
        {
          "internalType": "address",
          "name": "to",
          "type": "address"
        },
        {
          "internalType": "uint256",
          "name": "amount",
          "type": "uint256"
        },
        {
          "internalType": "uint256",
          "name": "otherChainNonce",
          "type": "uint256"
        }
      ],
      "name": "transferToBSC",
      "outputs": [],
      "stateMutability": "nonpayable",
      "type": "function"
    }
  ],
  "bytecode": "0x60806040527f9f2df0fed2c77648de5860a4cc508cd0818c85b8b8a1ab4ceeef8d981c8956a66001557fa49807205ce4d355092ef5a8a18f56e8913cf4a201fbe287825b095693c217756002553480156200005957600080fd5b5060405162000dc638038062000dc68339810160408190526200007c91620001f5565b600380546001600160a01b0319166001600160a01b038516179055600254620000a69082620000d4565b600154620000b59083620000d4565b620000cb600154600254620000e460201b60201c565b5050506200023e565b620000e0828262000138565b5050565b600082815260208190526040902060010154819060405184907fbd79b86ffe0ab8e8776151514217cd7cacd52c909f66475c3af44e129f0b00ff90600090a460009182526020829052604090912060010155565b6000828152602081815260408083206001600160a01b038516845290915290205460ff16620000e0576000828152602081815260408083206001600160a01b03851684529091529020805460ff19166001179055620001943390565b6001600160a01b0316816001600160a01b0316837f2f8788117e7eff1d82e926ec794901d17c78024a50270940304540a733656f0d60405160405180910390a45050565b80516001600160a01b0381168114620001f057600080fd5b919050565b6000806000606084860312156200020a578283fd5b6200021584620001d8565b92506200022560208501620001d8565b91506200023560408501620001d8565b90509250925092565b610b78806200024e6000396000f3fe608060405234801561001057600080fd5b50600436106100ea5760003560e01c806391dae5191161008c578063d539139311610066578063d5391393146101d3578063d547741f146101dc578063ec23b965146101ef578063fc0c546a1461020257600080fd5b806391dae5191461019f578063a217fddf146101c2578063affed0e0146101ca57600080fd5b806336568abe116100c857806336568abe1461015d5780634003752c1461017057806375b238fc1461018357806391d148541461018c57600080fd5b806301ffc9a7146100ef578063248a9ca3146101175780632f2ff15d14610148575b600080fd5b6101026100fd3660046109c3565b61022d565b60405190151581526020015b60405180910390f35b61013a610125366004610980565b60009081526020819052604090206001015490565b60405190815260200161010e565b61015b610156366004610998565b610264565b005b61015b61016b366004610998565b61028f565b61015b61017e366004610925565b610312565b61013a60025481565b61010261019a366004610998565b6103f0565b6101026101ad366004610980565b60056020526000908152604090205460ff1681565b61013a600081565b61013a60045481565b61013a60015481565b61015b6101ea366004610998565b610419565b61015b6101fd36600461094e565b61043f565b600354610215906001600160a01b031681565b6040516001600160a01b03909116815260200161010e565b60006001600160e01b03198216637965db0b60e01b148061025e57506301ffc9a760e01b6001600160e01b03198316145b92915050565b60008281526020819052604090206001015461028081336105d3565b61028a8383610637565b505050565b6001600160a01b03811633146103045760405162461bcd60e51b815260206004820152602f60248201527f416363657373436f6e74726f6c3a2063616e206f6e6c792072656e6f756e636560448201526e103937b632b9903337b91039b2b63360891b60648201526084015b60405180910390fd5b61030e82826106bb565b5050565b600354604051632770a7eb60e21b8152336004820152602481018390526001600160a01b0390911690639dc29fac90604401600060405180830381600087803b15801561035e57600080fd5b505af1158015610372573d6000803e3d6000fd5b506000925061037f915050565b600454604080513381526001600160a01b03861660208201528082018590524260608201526080810192909252517f27757542a5e1b9e8cef80f584e094d4eb63b9802f355c61b3640b71b618d5c8e9181900360a00190a2600480549060006103e783610b11565b91905055505050565b6000918252602082815260408084206001600160a01b0393909316845291905290205460ff1690565b60008281526020819052604090206001015461043581336105d3565b61028a83836106bb565b61044b600154336103f0565b6104905760405162461bcd60e51b815260206004820152601660248201527521b0b63632b91034b9903737ba10309036b4b73a32b960511b60448201526064016102fb565b60008181526005602052604090205460ff16156104ef5760405162461bcd60e51b815260206004820152601a60248201527f7472616e7366657220616c72656164792070726f63657373656400000000000060448201526064016102fb565b60008181526005602052604090819020805460ff1916600117905560035490516340c10f1960e01b81526001600160a01b03858116600483015260248201859052909116906340c10f1990604401600060405180830381600087803b15801561055757600080fd5b505af115801561056b573d6000803e3d6000fd5b5060019250610578915050565b604080513381526001600160a01b0386166020820152908101849052426060820152608081018390527f27757542a5e1b9e8cef80f584e094d4eb63b9802f355c61b3640b71b618d5c8e9060a00160405180910390a2505050565b6105dd82826103f0565b61030e576105f5816001600160a01b03166014610720565b610600836020610720565b6040516020016106119291906109eb565b60408051601f198184030181529082905262461bcd60e51b82526102fb91600401610a60565b61064182826103f0565b61030e576000828152602081815260408083206001600160a01b03851684529091529020805460ff191660011790556106773390565b6001600160a01b0316816001600160a01b0316837f2f8788117e7eff1d82e926ec794901d17c78024a50270940304540a733656f0d60405160405180910390a45050565b6106c582826103f0565b1561030e576000828152602081815260408083206001600160a01b0385168085529252808320805460ff1916905551339285917ff6391f5c32d9c69d2a47ea670b442974b53935d1edc7fd64eb21e047a839171b9190a45050565b6060600061072f836002610aab565b61073a906002610a93565b67ffffffffffffffff81111561076057634e487b7160e01b600052604160045260246000fd5b6040519080825280601f01601f19166020018201604052801561078a576020820181803683370190505b509050600360fc1b816000815181106107b357634e487b7160e01b600052603260045260246000fd5b60200101906001600160f81b031916908160001a905350600f60fb1b816001815181106107f057634e487b7160e01b600052603260045260246000fd5b60200101906001600160f81b031916908160001a9053506000610814846002610aab565b61081f906001610a93565b90505b60018111156108b3576f181899199a1a9b1b9c1cb0b131b232b360811b85600f166010811061086157634e487b7160e01b600052603260045260246000fd5b1a60f81b82828151811061088557634e487b7160e01b600052603260045260246000fd5b60200101906001600160f81b031916908160001a90535060049490941c936108ac81610afa565b9050610822565b5083156109025760405162461bcd60e51b815260206004820181905260248201527f537472696e67733a20686578206c656e67746820696e73756666696369656e7460448201526064016102fb565b9392505050565b80356001600160a01b038116811461092057600080fd5b919050565b60008060408385031215610937578182fd5b61094083610909565b946020939093013593505050565b600080600060608486031215610962578081fd5b61096b84610909565b95602085013595506040909401359392505050565b600060208284031215610991578081fd5b5035919050565b600080604083850312156109aa578182fd5b823591506109ba60208401610909565b90509250929050565b6000602082840312156109d4578081fd5b81356001600160e01b031981168114610902578182fd5b7f416363657373436f6e74726f6c3a206163636f756e7420000000000000000000815260008351610a23816017850160208801610aca565b7001034b99036b4b9b9b4b733903937b6329607d1b6017918401918201528351610a54816028840160208801610aca565b01602801949350505050565b6020815260008251806020840152610a7f816040850160208701610aca565b601f01601f19169190910160400192915050565b60008219821115610aa657610aa6610b2c565b500190565b6000816000190483118215151615610ac557610ac5610b2c565b500290565b60005b83811015610ae5578181015183820152602001610acd565b83811115610af4576000848401525b50505050565b600081610b0957610b09610b2c565b506000190190565b6000600019821415610b2557610b25610b2c565b5060010190565b634e487b7160e01b600052601160045260246000fdfea264697066735822122000c53e6cc0eceb32b9eb6a67ec3c3af98cf2c84f2dce6af07da1df02004dc65464736f6c63430008040033",
  "immutableReferences": {},
  "source": "// SPDX-License-Identifier: MIT\n\npragma solidity ^0.8.4;\n\nimport \"@openzeppelin/contracts/access/AccessControl.sol\";\nimport '@openzeppelin/contracts/token/ERC20/IERC20.sol';\nimport './IMintBurn.sol';\n\n\ncontract BridgeBSC is AccessControl{\n  bytes32 public MINTER_ROLE = keccak256(\"MINTER_ROLE\");\n  bytes32 public ADMIN_ROLE = keccak256(\"ADMIN_ROLE\");\n\n  IMintBurn public token;\n  uint public nonce;\n  mapping(uint => bool) public processedNonces;\n\n  enum Step { Burn, Mint }\n  event Transfer(\n    address from,\n    address to,\n    uint amount,\n    uint date,\n    uint nonce,\n    Step indexed step\n  );\n\n  constructor(address _token, address minter, address admin) {\n    token = IMintBurn(_token);\n\n    _setupRole(ADMIN_ROLE, admin);\n    _setupRole(MINTER_ROLE, minter);\n    _setRoleAdmin(MINTER_ROLE, ADMIN_ROLE);\n  }\n\n  function transferToETH(address to_, uint amount_) external {\n    token.burn(msg.sender, amount_);\n    emit Transfer(\n      msg.sender,\n      to_,\n      amount_,\n      block.timestamp,\n      nonce,\n      Step.Burn\n    );\n    nonce++;\n  }\n\n  function transferToBSC(address to, uint amount, uint otherChainNonce) external {\n    require(hasRole(MINTER_ROLE, msg.sender), \"Caller is not a minter\");\n    require(processedNonces[otherChainNonce] == false, 'transfer already processed');\n    processedNonces[otherChainNonce] = true;\n    token.mint(to, amount);\n    emit Transfer(\n      msg.sender,\n      to,\n      amount,\n      block.timestamp,\n      otherChainNonce,\n      Step.Mint\n    );\n  }\n}",
  "sourcePath": "/Users/christopherdancy/Blockchain/0chain/contracts/BridgeBSC.sol",
  "compiler": {
    "name": "solc",
    "version": "0.8.4+commit.c7e474f2.Emscripten.clang"
  },
  "schemaVersion": "3.3.1",
  "updatedAt": "2021-05-04T22:46:29.823Z",
  "devdoc": {
    "kind": "dev",
    "methods": {
      "getRoleAdmin(bytes32)": {
        "details": "Returns the admin role that controls `role`. See {grantRole} and {revokeRole}. To change a role's admin, use {_setRoleAdmin}."
      },
      "grantRole(bytes32,address)": {
        "details": "Grants `role` to `account`. If `account` had not been already granted `role`, emits a {RoleGranted} event. Requirements: - the caller must have ``role``'s admin role."
      },
      "hasRole(bytes32,address)": {
        "details": "Returns `true` if `account` has been granted `role`."
      },
      "renounceRole(bytes32,address)": {
        "details": "Revokes `role` from the calling account. Roles are often managed via {grantRole} and {revokeRole}: this function's purpose is to provide a mechanism for accounts to lose their privileges if they are compromised (such as when a trusted device is misplaced). If the calling account had been granted `role`, emits a {RoleRevoked} event. Requirements: - the caller must be `account`."
      },
      "revokeRole(bytes32,address)": {
        "details": "Revokes `role` from `account`. If `account` had been granted `role`, emits a {RoleRevoked} event. Requirements: - the caller must have ``role``'s admin role."
      },
      "supportsInterface(bytes4)": {
        "details": "See {IERC165-supportsInterface}."
      }
    },
    "version": 1
  },
  "userdoc": {
    "kind": "user",
    "methods": {},
    "version": 1
  }
}