{
  "contractName": "BridgeETH",
  "abi": [
    {
      "inputs": [
        {
          "internalType": "contract IERC20",
          "name": "_token",
          "type": "address"
        },
        {
          "internalType": "address",
          "name": "releaser",
          "type": "address"
        },
        {
          "internalType": "address",
          "name": "admin",
          "type": "address"
        }
      ],
      "stateMutability": "nonpayable",
      "type": "constructor"
    },
    {
      "anonymous": false,
      "inputs": [
        {
          "indexed": true,
          "internalType": "bytes32",
          "name": "role",
          "type": "bytes32"
        },
        {
          "indexed": true,
          "internalType": "bytes32",
          "name": "previousAdminRole",
          "type": "bytes32"
        },
        {
          "indexed": true,
          "internalType": "bytes32",
          "name": "newAdminRole",
          "type": "bytes32"
        }
      ],
      "name": "RoleAdminChanged",
      "type": "event"
    },
    {
      "anonymous": false,
      "inputs": [
        {
          "indexed": true,
          "internalType": "bytes32",
          "name": "role",
          "type": "bytes32"
        },
        {
          "indexed": true,
          "internalType": "address",
          "name": "account",
          "type": "address"
        },
        {
          "indexed": true,
          "internalType": "address",
          "name": "sender",
          "type": "address"
        }
      ],
      "name": "RoleGranted",
      "type": "event"
    },
    {
      "anonymous": false,
      "inputs": [
        {
          "indexed": true,
          "internalType": "bytes32",
          "name": "role",
          "type": "bytes32"
        },
        {
          "indexed": true,
          "internalType": "address",
          "name": "account",
          "type": "address"
        },
        {
          "indexed": true,
          "internalType": "address",
          "name": "sender",
          "type": "address"
        }
      ],
      "name": "RoleRevoked",
      "type": "event"
    },
    {
      "anonymous": false,
      "inputs": [
        {
          "indexed": false,
          "internalType": "address",
          "name": "from",
          "type": "address"
        },
        {
          "indexed": false,
          "internalType": "address",
          "name": "to",
          "type": "address"
        },
        {
          "indexed": false,
          "internalType": "uint256",
          "name": "amount",
          "type": "uint256"
        },
        {
          "indexed": false,
          "internalType": "uint256",
          "name": "date",
          "type": "uint256"
        },
        {
          "indexed": false,
          "internalType": "uint256",
          "name": "nonce",
          "type": "uint256"
        },
        {
          "indexed": true,
          "internalType": "enum BridgeETH.Step",
          "name": "step",
          "type": "uint8"
        }
      ],
      "name": "Transfer",
      "type": "event"
    },
    {
      "inputs": [],
      "name": "ADMIN_ROLE",
      "outputs": [
        {
          "internalType": "bytes32",
          "name": "",
          "type": "bytes32"
        }
      ],
      "stateMutability": "view",
      "type": "function"
    },
    {
      "inputs": [],
      "name": "DEFAULT_ADMIN_ROLE",
      "outputs": [
        {
          "internalType": "bytes32",
          "name": "",
          "type": "bytes32"
        }
      ],
      "stateMutability": "view",
      "type": "function"
    },
    {
      "inputs": [],
      "name": "RELEASER_ROLE",
      "outputs": [
        {
          "internalType": "bytes32",
          "name": "",
          "type": "bytes32"
        }
      ],
      "stateMutability": "view",
      "type": "function"
    },
    {
      "inputs": [
        {
          "internalType": "bytes32",
          "name": "role",
          "type": "bytes32"
        }
      ],
      "name": "getRoleAdmin",
      "outputs": [
        {
          "internalType": "bytes32",
          "name": "",
          "type": "bytes32"
        }
      ],
      "stateMutability": "view",
      "type": "function"
    },
    {
      "inputs": [
        {
          "internalType": "bytes32",
          "name": "role",
          "type": "bytes32"
        },
        {
          "internalType": "address",
          "name": "account",
          "type": "address"
        }
      ],
      "name": "grantRole",
      "outputs": [],
      "stateMutability": "nonpayable",
      "type": "function"
    },
    {
      "inputs": [
        {
          "internalType": "bytes32",
          "name": "role",
          "type": "bytes32"
        },
        {
          "internalType": "address",
          "name": "account",
          "type": "address"
        }
      ],
      "name": "hasRole",
      "outputs": [
        {
          "internalType": "bool",
          "name": "",
          "type": "bool"
        }
      ],
      "stateMutability": "view",
      "type": "function"
    },
    {
      "inputs": [],
      "name": "nonce",
      "outputs": [
        {
          "internalType": "uint256",
          "name": "",
          "type": "uint256"
        }
      ],
      "stateMutability": "view",
      "type": "function"
    },
    {
      "inputs": [
        {
          "internalType": "uint256",
          "name": "",
          "type": "uint256"
        }
      ],
      "name": "processedNonces",
      "outputs": [
        {
          "internalType": "bool",
          "name": "",
          "type": "bool"
        }
      ],
      "stateMutability": "view",
      "type": "function"
    },
    {
      "inputs": [
        {
          "internalType": "bytes32",
          "name": "role",
          "type": "bytes32"
        },
        {
          "internalType": "address",
          "name": "account",
          "type": "address"
        }
      ],
      "name": "renounceRole",
      "outputs": [],
      "stateMutability": "nonpayable",
      "type": "function"
    },
    {
      "inputs": [
        {
          "internalType": "bytes32",
          "name": "role",
          "type": "bytes32"
        },
        {
          "internalType": "address",
          "name": "account",
          "type": "address"
        }
      ],
      "name": "revokeRole",
      "outputs": [],
      "stateMutability": "nonpayable",
      "type": "function"
    },
    {
      "inputs": [
        {
          "internalType": "bytes4",
          "name": "interfaceId",
          "type": "bytes4"
        }
      ],
      "name": "supportsInterface",
      "outputs": [
        {
          "internalType": "bool",
          "name": "",
          "type": "bool"
        }
      ],
      "stateMutability": "view",
      "type": "function"
    },
    {
      "inputs": [],
      "name": "token",
      "outputs": [
        {
          "internalType": "contract IERC20",
          "name": "",
          "type": "address"
        }
      ],
      "stateMutability": "view",
      "type": "function"
    },
    {
      "inputs": [
        {
          "internalType": "address",
          "name": "newMinter",
          "type": "address"
        }
      ],
      "name": "grantReleaserRole",
      "outputs": [],
      "stateMutability": "nonpayable",
      "type": "function"
    },
    {
      "inputs": [
        {
          "internalType": "address",
          "name": "previousMinter",
          "type": "address"
        }
      ],
      "name": "revokeReleaserRole",
      "outputs": [],
      "stateMutability": "nonpayable",
      "type": "function"
    },
    {
      "inputs": [
        {
          "internalType": "address",
          "name": "to",
          "type": "address"
        },
        {
          "internalType": "uint256",
          "name": "amount",
          "type": "uint256"
        }
      ],
      "name": "transferFromETHToBSC",
      "outputs": [],
      "stateMutability": "nonpayable",
      "type": "function"
    },
    {
      "inputs": [
        {
          "internalType": "address",
          "name": "from",
          "type": "address"
        },
        {
          "internalType": "address",
          "name": "to",
          "type": "address"
        },
        {
          "internalType": "uint256",
          "name": "amount",
          "type": "uint256"
        },
        {
          "internalType": "uint256",
          "name": "otherChainNonce",
          "type": "uint256"
        }
      ],
      "name": "transferFromBSCToETH",
      "outputs": [],
      "stateMutability": "nonpayable",
      "type": "function"
    }
  ],
  "bytecode": "0x60806040527f88f3509f0e42391f2d94ebfb2a37cbd0782b1b8f73715330017f4663290b81176001557fa49807205ce4d355092ef5a8a18f56e8913cf4a201fbe287825b095693c217756002553480156200005957600080fd5b50604051620010d1380380620010d18339810160408190526200007c91620001d8565b600380546001600160a01b0319166001600160a01b038516179055600254620000a69082620000d4565b600154620000b59083620000d4565b620000cb600154600254620000e460201b60201c565b50505062000244565b620000e0828262000138565b5050565b600082815260208190526040902060010154819060405184907fbd79b86ffe0ab8e8776151514217cd7cacd52c909f66475c3af44e129f0b00ff90600090a460009182526020829052604090912060010155565b6000828152602081815260408083206001600160a01b038516845290915290205460ff16620000e0576000828152602081815260408083206001600160a01b03851684529091529020805460ff19166001179055620001943390565b6001600160a01b0316816001600160a01b0316837f2f8788117e7eff1d82e926ec794901d17c78024a50270940304540a733656f0d60405160405180910390a45050565b600080600060608486031215620001ed578283fd5b8351620001fa816200022b565b60208501519093506200020d816200022b565b604085015190925062000220816200022b565b809150509250925092565b6001600160a01b03811681146200024157600080fd5b50565b610e7d80620002546000396000f3fe608060405234801561001057600080fd5b50600436106101005760003560e01c806391dae51911610097578063affed0e011610066578063affed0e01461020f578063d547741f14610218578063eba862a11461022b578063fc0c546a1461023e57600080fd5b806391dae519146101c8578063a217fddf146101eb578063abeab361146101f3578063ac28af241461020657600080fd5b8063666798e4116100d3578063666798e4146101865780636e13a8451461019957806375b238fc146101ac57806391d14854146101b557600080fd5b806301ffc9a714610105578063248a9ca31461012d5780632f2ff15d1461015e57806336568abe14610173575b600080fd5b610118610113366004610cb0565b610269565b60405190151581526020015b60405180910390f35b61015061013b366004610c6d565b60009081526020819052604090206001015490565b604051908152602001610124565b61017161016c366004610c85565b6102a0565b005b610171610181366004610c85565b6102cb565b610171610194366004610c24565b61034e565b6101716101a7366004610be3565b6103db565b61015060025481565b6101186101c3366004610c85565b610522565b6101186101d6366004610c6d565b60056020526000908152604090205460ff1681565b610150600081565b610171610201366004610bc9565b61054b565b61015060015481565b61015060045481565b610171610226366004610c85565b61055a565b610171610239366004610bc9565b610580565b600354610251906001600160a01b031681565b6040516001600160a01b039091168152602001610124565b60006001600160e01b03198216637965db0b60e01b148061029a57506301ffc9a760e01b6001600160e01b03198316145b92915050565b6000828152602081905260409020600101546102bc813361058c565b6102c683836105f0565b505050565b6001600160a01b03811633146103405760405162461bcd60e51b815260206004820152602f60248201527f416363657373436f6e74726f6c3a2063616e206f6e6c792072656e6f756e636560448201526e103937b632b9903337b91039b2b63360891b60648201526084015b60405180910390fd5b61034a8282610674565b5050565b600354610366906001600160a01b03163330846106d9565b6000600454604080513381526001600160a01b038616602082015290810184905242606082015260808101919091527f27757542a5e1b9e8cef80f584e094d4eb63b9802f355c61b3640b71b618d5c8e9060a00160405180910390a2600480549060006103d283610e16565b91905055505050565b6103e760015433610522565b6104335760405162461bcd60e51b815260206004820152601860248201527f43616c6c6572206973206e6f7420612072656c656173657200000000000000006044820152606401610337565b60008181526005602052604090205460ff16156104925760405162461bcd60e51b815260206004820152601a60248201527f7472616e7366657220616c72656164792070726f6365737365640000000000006044820152606401610337565b6000818152600560205260409020805460ff191660011790556003546104c2906001600160a01b0316848461074a565b6001604080516001600160a01b03808816825286166020820152908101849052426060820152608081018390527f27757542a5e1b9e8cef80f584e094d4eb63b9802f355c61b3640b71b618d5c8e9060a00160405180910390a250505050565b6000918252602082815260408084206001600160a01b0393909316845291905290205460ff1690565b610557600154826102a0565b50565b600082815260208190526040902060010154610576813361058c565b6102c68383610674565b6105576001548261055a565b6105968282610522565b61034a576105ae816001600160a01b0316601461077a565b6105b983602061077a565b6040516020016105ca929190610cf4565b60408051601f198184030181529082905262461bcd60e51b825261033791600401610d69565b6105fa8282610522565b61034a576000828152602081815260408083206001600160a01b03851684529091529020805460ff191660011790556106303390565b6001600160a01b0316816001600160a01b0316837f2f8788117e7eff1d82e926ec794901d17c78024a50270940304540a733656f0d60405160405180910390a45050565b61067e8282610522565b1561034a576000828152602081815260408083206001600160a01b0385168085529252808320805460ff1916905551339285917ff6391f5c32d9c69d2a47ea670b442974b53935d1edc7fd64eb21e047a839171b9190a45050565b6040516001600160a01b03808516602483015283166044820152606481018290526107449085906323b872dd60e01b906084015b60408051601f198184030181529190526020810180516001600160e01b03166001600160e01b031990931692909217909152610963565b50505050565b6040516001600160a01b0383166024820152604481018290526102c690849063a9059cbb60e01b9060640161070d565b60606000610789836002610db4565b610794906002610d9c565b67ffffffffffffffff8111156107ba57634e487b7160e01b600052604160045260246000fd5b6040519080825280601f01601f1916602001820160405280156107e4576020820181803683370190505b509050600360fc1b8160008151811061080d57634e487b7160e01b600052603260045260246000fd5b60200101906001600160f81b031916908160001a905350600f60fb1b8160018151811061084a57634e487b7160e01b600052603260045260246000fd5b60200101906001600160f81b031916908160001a905350600061086e846002610db4565b610879906001610d9c565b90505b600181111561090d576f181899199a1a9b1b9c1cb0b131b232b360811b85600f16601081106108bb57634e487b7160e01b600052603260045260246000fd5b1a60f81b8282815181106108df57634e487b7160e01b600052603260045260246000fd5b60200101906001600160f81b031916908160001a90535060049490941c9361090681610dff565b905061087c565b50831561095c5760405162461bcd60e51b815260206004820181905260248201527f537472696e67733a20686578206c656e67746820696e73756666696369656e746044820152606401610337565b9392505050565b60006109b8826040518060400160405280602081526020017f5361666545524332303a206c6f772d6c6576656c2063616c6c206661696c6564815250856001600160a01b0316610a359092919063ffffffff16565b8051909150156102c657808060200190518101906109d69190610c4d565b6102c65760405162461bcd60e51b815260206004820152602a60248201527f5361666545524332303a204552433230206f7065726174696f6e20646964206e6044820152691bdd081cdd58d8d9595960b21b6064820152608401610337565b6060610a448484600085610a4c565b949350505050565b606082471015610aad5760405162461bcd60e51b815260206004820152602660248201527f416464726573733a20696e73756666696369656e742062616c616e636520666f6044820152651c8818d85b1b60d21b6064820152608401610337565b843b610afb5760405162461bcd60e51b815260206004820152601d60248201527f416464726573733a2063616c6c20746f206e6f6e2d636f6e74726163740000006044820152606401610337565b600080866001600160a01b03168587604051610b179190610cd8565b60006040518083038185875af1925050503d8060008114610b54576040519150601f19603f3d011682016040523d82523d6000602084013e610b59565b606091505b5091509150610b69828286610b74565b979650505050505050565b60608315610b8357508161095c565b825115610b935782518084602001fd5b8160405162461bcd60e51b81526004016103379190610d69565b80356001600160a01b0381168114610bc457600080fd5b919050565b600060208284031215610bda578081fd5b61095c82610bad565b60008060008060808587031215610bf8578283fd5b610c0185610bad565b9350610c0f60208601610bad565b93969395505050506040820135916060013590565b60008060408385031215610c36578182fd5b610c3f83610bad565b946020939093013593505050565b600060208284031215610c5e578081fd5b8151801515811461095c578182fd5b600060208284031215610c7e578081fd5b5035919050565b60008060408385031215610c97578182fd5b82359150610ca760208401610bad565b90509250929050565b600060208284031215610cc1578081fd5b81356001600160e01b03198116811461095c578182fd5b60008251610cea818460208701610dd3565b9190910192915050565b7f416363657373436f6e74726f6c3a206163636f756e7420000000000000000000815260008351610d2c816017850160208801610dd3565b7001034b99036b4b9b9b4b733903937b6329607d1b6017918401918201528351610d5d816028840160208801610dd3565b01602801949350505050565b6020815260008251806020840152610d88816040850160208701610dd3565b601f01601f19169190910160400192915050565b60008219821115610daf57610daf610e31565b500190565b6000816000190483118215151615610dce57610dce610e31565b500290565b60005b83811015610dee578181015183820152602001610dd6565b838111156107445750506000910152565b600081610e0e57610e0e610e31565b506000190190565b6000600019821415610e2a57610e2a610e31565b5060010190565b634e487b7160e01b600052601160045260246000fdfea2646970667358221220ad4da1b2bbecb5e6382fffab30d8f60c482e6068caed54c9dfc7bf7c77b0cc9164736f6c63430008040033",
  "immutableReferences": {},
  "source": "// SPDX-License-Identifier: MIT\n\npragma solidity ^0.8.4;\n\nimport \"@openzeppelin/contracts/access/AccessControl.sol\";\nimport \"@openzeppelin/contracts/token/ERC20/utils/SafeERC20.sol\";\n\n\ncontract BridgeETH is AccessControl{\n  using SafeERC20 for IERC20;\n  bytes32 public RELEASER_ROLE = keccak256(\"RELEASER_ROLE\");\n  bytes32 public ADMIN_ROLE = keccak256(\"ADMIN_ROLE\");\n\n  IERC20 public token;\n  uint public nonce;\n  mapping(uint => bool) public processedNonces;\n\n  enum Step { Lock, Release }\n  event Transfer(\n    address from,\n    address to,\n    uint amount,\n    uint date,\n    uint nonce,\n    Step indexed step\n  );\n\n  constructor(IERC20 _token, address releaser, address admin) {\n    token = IERC20(_token);\n\n    _setupRole(ADMIN_ROLE, admin);\n    _setupRole(RELEASER_ROLE, releaser);\n    _setRoleAdmin(RELEASER_ROLE, ADMIN_ROLE);\n  }\n\n  function grantReleaserRole (address newMinter) public {\n      grantRole(RELEASER_ROLE, newMinter);\n  }\n\n  function revokeReleaserRole (address previousMinter) public {\n      revokeRole(RELEASER_ROLE, previousMinter);\n  }\n\n  function transferFromETHToBSC(address to, uint amount) external {\n    token.safeTransferFrom(msg.sender, address(this), amount);\n    emit Transfer(\n      msg.sender,\n      to,\n      amount,\n      block.timestamp,\n      nonce,\n      Step.Lock\n    );\n    nonce++;\n  }\n\n  function transferFromBSCToETH(address from, address to, uint amount, uint otherChainNonce) external {\n    require(hasRole(RELEASER_ROLE, msg.sender), \"Caller is not a releaser\");\n    require(processedNonces[otherChainNonce] == false, 'transfer already processed');\n    processedNonces[otherChainNonce] = true;\n    token.safeTransfer(to, amount);\n    emit Transfer(\n      from,\n      to,\n      amount,\n      block.timestamp,\n      otherChainNonce,\n      Step.Release\n    );\n  }\n}",
  "sourcePath": "/Users/christopherdancy/Blockchain/0chain/contracts/BridgeETH.sol",
  "compiler": {
    "name": "solc",
    "version": "0.8.4+commit.c7e474f2.Emscripten.clang"
  },
  "schemaVersion": "3.3.1",
  "updatedAt": "2021-05-08T15:39:50.450Z",
  "devdoc": {
    "kind": "dev",
    "methods": {
      "getRoleAdmin(bytes32)": {
        "details": "Returns the admin role that controls `role`. See {grantRole} and {revokeRole}. To change a role's admin, use {_setRoleAdmin}."
      },
      "grantRole(bytes32,address)": {
        "details": "Grants `role` to `account`. If `account` had not been already granted `role`, emits a {RoleGranted} event. Requirements: - the caller must have ``role``'s admin role."
      },
      "hasRole(bytes32,address)": {
        "details": "Returns `true` if `account` has been granted `role`."
      },
      "renounceRole(bytes32,address)": {
        "details": "Revokes `role` from the calling account. Roles are often managed via {grantRole} and {revokeRole}: this function's purpose is to provide a mechanism for accounts to lose their privileges if they are compromised (such as when a trusted device is misplaced). If the calling account had been granted `role`, emits a {RoleRevoked} event. Requirements: - the caller must be `account`."
      },
      "revokeRole(bytes32,address)": {
        "details": "Revokes `role` from `account`. If `account` had been granted `role`, emits a {RoleRevoked} event. Requirements: - the caller must have ``role``'s admin role."
      },
      "supportsInterface(bytes4)": {
        "details": "See {IERC165-supportsInterface}."
      }
    },
    "version": 1
  },
  "userdoc": {
    "kind": "user",
    "methods": {},
    "version": 1
  }
}