{
  "contractName": "BridgeBSC",
  "abi": [
    {
      "inputs": [
        {
          "internalType": "address",
          "name": "_token",
          "type": "address"
        }
      ],
      "stateMutability": "nonpayable",
      "type": "constructor"
    },
    {
      "anonymous": false,
      "inputs": [
        {
          "indexed": false,
          "internalType": "address",
          "name": "from",
          "type": "address"
        },
        {
          "indexed": false,
          "internalType": "address",
          "name": "to",
          "type": "address"
        },
        {
          "indexed": false,
          "internalType": "uint256",
          "name": "amount",
          "type": "uint256"
        },
        {
          "indexed": false,
          "internalType": "uint256",
          "name": "date",
          "type": "uint256"
        },
        {
          "indexed": false,
          "internalType": "uint256",
          "name": "nonce",
          "type": "uint256"
        },
        {
          "indexed": true,
          "internalType": "enum BridgeBSC.Step",
          "name": "step",
          "type": "uint8"
        }
      ],
      "name": "Transfer",
      "type": "event"
    },
    {
      "inputs": [],
      "name": "nonce",
      "outputs": [
        {
          "internalType": "uint256",
          "name": "",
          "type": "uint256"
        }
      ],
      "stateMutability": "view",
      "type": "function"
    },
    {
      "inputs": [
        {
          "internalType": "uint256",
          "name": "",
          "type": "uint256"
        }
      ],
      "name": "processedNonces",
      "outputs": [
        {
          "internalType": "bool",
          "name": "",
          "type": "bool"
        }
      ],
      "stateMutability": "view",
      "type": "function"
    },
    {
      "inputs": [],
      "name": "token",
      "outputs": [
        {
          "internalType": "contract IMintBurn",
          "name": "",
          "type": "address"
        }
      ],
      "stateMutability": "view",
      "type": "function"
    },
    {
      "inputs": [
        {
          "internalType": "address",
          "name": "to_",
          "type": "address"
        },
        {
          "internalType": "uint256",
          "name": "amount_",
          "type": "uint256"
        }
      ],
      "name": "transferToETH",
      "outputs": [],
      "stateMutability": "nonpayable",
      "type": "function"
    },
    {
      "inputs": [
        {
          "internalType": "address",
          "name": "to",
          "type": "address"
        },
        {
          "internalType": "uint256",
          "name": "amount",
          "type": "uint256"
        },
        {
          "internalType": "uint256",
          "name": "otherChainNonce",
          "type": "uint256"
        }
      ],
      "name": "transferToBSC",
      "outputs": [],
      "stateMutability": "nonpayable",
      "type": "function"
    }
  ],
  "bytecode": "0x608060405234801561001057600080fd5b5060405161049e38038061049e83398101604081905261002f91610054565b600080546001600160a01b0319166001600160a01b0392909216919091179055610082565b600060208284031215610065578081fd5b81516001600160a01b038116811461007b578182fd5b9392505050565b61040d806100916000396000f3fe608060405234801561001057600080fd5b50600436106100575760003560e01c80634003752c1461005c57806391dae51914610071578063affed0e0146100a9578063ec23b965146100c0578063fc0c546a146100d3575b600080fd5b61006f61006a36600461033d565b6100fe565b005b61009461007f366004610398565b60026020526000908152604090205460ff1681565b60405190151581526020015b60405180910390f35b6100b260015481565b6040519081526020016100a0565b61006f6100ce366004610366565b6101dc565b6000546100e6906001600160a01b031681565b6040516001600160a01b0390911681526020016100a0565b600054604051632770a7eb60e21b8152336004820152602481018390526001600160a01b0390911690639dc29fac90604401600060405180830381600087803b15801561014a57600080fd5b505af115801561015e573d6000803e3d6000fd5b506000925061016b915050565b600154604080513381526001600160a01b03861660208201528082018590524260608201526080810192909252517f27757542a5e1b9e8cef80f584e094d4eb63b9802f355c61b3640b71b618d5c8e9181900360a00190a2600180549060006101d3836103b0565b91905055505050565b60008181526002602052604090205460ff161561023f5760405162461bcd60e51b815260206004820152601a60248201527f7472616e7366657220616c72656164792070726f636573736564000000000000604482015260640160405180910390fd5b600081815260026020526040808220805460ff19166001179055905490516340c10f1960e01b81526001600160a01b03858116600483015260248201859052909116906340c10f1990604401600060405180830381600087803b1580156102a557600080fd5b505af11580156102b9573d6000803e3d6000fd5b50600192506102c6915050565b604080513381526001600160a01b0386166020820152908101849052426060820152608081018390527f27757542a5e1b9e8cef80f584e094d4eb63b9802f355c61b3640b71b618d5c8e9060a00160405180910390a2505050565b80356001600160a01b038116811461033857600080fd5b919050565b6000806040838503121561034f578182fd5b61035883610321565b946020939093013593505050565b60008060006060848603121561037a578081fd5b61038384610321565b95602085013595506040909401359392505050565b6000602082840312156103a9578081fd5b5035919050565b60006000198214156103d057634e487b7160e01b81526011600452602481fd5b506001019056fea26469706673582212208e5543a61cc875900d25829b02e2dfb4434bb5b799bb17ebb380b8d1bc3723f864736f6c63430008040033",
  "immutableReferences": {},
  "source": "// SPDX-License-Identifier: MIT\n\npragma solidity ^0.8.4;\n\nimport '@openzeppelin/contracts/token/ERC20/IERC20.sol';\nimport './IMintBurn.sol';\n\n\ncontract BridgeBSC {\n  IMintBurn public token;\n  uint public nonce;\n  mapping(uint => bool) public processedNonces;\n\n  enum Step { Burn, Mint }\n  event Transfer(\n    address from,\n    address to,\n    uint amount,\n    uint date,\n    uint nonce,\n    Step indexed step\n  );\n\n  constructor(address _token) {\n    token = IMintBurn(_token);\n  }\n\n  function transferToETH(address to_, uint amount_) external {\n    token.burn(msg.sender, amount_);\n    emit Transfer(\n      msg.sender,\n      to_,\n      amount_,\n      block.timestamp,\n      nonce,\n      Step.Burn\n    );\n    nonce++;\n  }\n\n  function transferToBSC(address to, uint amount, uint otherChainNonce) external {\n    require(processedNonces[otherChainNonce] == false, 'transfer already processed');\n    processedNonces[otherChainNonce] = true;\n    token.mint(to, amount);\n    emit Transfer(\n      msg.sender,\n      to,\n      amount,\n      block.timestamp,\n      otherChainNonce,\n      Step.Mint\n    );\n  }\n}",
  "sourcePath": "/Users/christopherdancy/Blockchain/0chain/contracts/BridgeBSC.sol",
  "compiler": {
    "name": "solc",
    "version": "0.8.4+commit.c7e474f2.Emscripten.clang"
  },
  "schemaVersion": "3.3.1",
  "updatedAt": "2021-05-04T20:23:44.081Z",
  "devdoc": {
    "kind": "dev",
    "methods": {},
    "version": 1
  },
  "userdoc": {
    "kind": "user",
    "methods": {},
    "version": 1
  }
}