{
  "contractName": "BridgeETH",
  "abi": [
    {
      "inputs": [
        {
          "internalType": "contract IERC20",
          "name": "_token",
          "type": "address"
        },
        {
          "internalType": "address",
          "name": "admin",
          "type": "address"
        }
      ],
      "stateMutability": "nonpayable",
      "type": "constructor"
    },
    {
      "anonymous": false,
      "inputs": [
        {
          "indexed": false,
          "internalType": "address",
          "name": "to",
          "type": "address"
        },
        {
          "indexed": false,
          "internalType": "uint256",
          "name": "amount",
          "type": "uint256"
        },
        {
          "indexed": false,
          "internalType": "uint256",
          "name": "date",
          "type": "uint256"
        },
        {
          "indexed": false,
          "internalType": "uint256",
          "name": "nonce",
          "type": "uint256"
        }
      ],
      "name": "ReturningToEth",
      "type": "event"
    },
    {
      "anonymous": false,
      "inputs": [
        {
          "indexed": true,
          "internalType": "bytes32",
          "name": "role",
          "type": "bytes32"
        },
        {
          "indexed": true,
          "internalType": "bytes32",
          "name": "previousAdminRole",
          "type": "bytes32"
        },
        {
          "indexed": true,
          "internalType": "bytes32",
          "name": "newAdminRole",
          "type": "bytes32"
        }
      ],
      "name": "RoleAdminChanged",
      "type": "event"
    },
    {
      "anonymous": false,
      "inputs": [
        {
          "indexed": true,
          "internalType": "bytes32",
          "name": "role",
          "type": "bytes32"
        },
        {
          "indexed": true,
          "internalType": "address",
          "name": "account",
          "type": "address"
        },
        {
          "indexed": true,
          "internalType": "address",
          "name": "sender",
          "type": "address"
        }
      ],
      "name": "RoleGranted",
      "type": "event"
    },
    {
      "anonymous": false,
      "inputs": [
        {
          "indexed": true,
          "internalType": "bytes32",
          "name": "role",
          "type": "bytes32"
        },
        {
          "indexed": true,
          "internalType": "address",
          "name": "account",
          "type": "address"
        },
        {
          "indexed": true,
          "internalType": "address",
          "name": "sender",
          "type": "address"
        }
      ],
      "name": "RoleRevoked",
      "type": "event"
    },
    {
      "anonymous": false,
      "inputs": [
        {
          "indexed": false,
          "internalType": "address",
          "name": "to",
          "type": "address"
        },
        {
          "indexed": false,
          "internalType": "uint256",
          "name": "amount",
          "type": "uint256"
        },
        {
          "indexed": false,
          "internalType": "uint256",
          "name": "date",
          "type": "uint256"
        },
        {
          "indexed": false,
          "internalType": "uint256",
          "name": "nonce",
          "type": "uint256"
        }
      ],
      "name": "TransferingToBSC",
      "type": "event"
    },
    {
      "inputs": [],
      "name": "ADMIN_ROLE",
      "outputs": [
        {
          "internalType": "bytes32",
          "name": "",
          "type": "bytes32"
        }
      ],
      "stateMutability": "view",
      "type": "function"
    },
    {
      "inputs": [],
      "name": "DEFAULT_ADMIN_ROLE",
      "outputs": [
        {
          "internalType": "bytes32",
          "name": "",
          "type": "bytes32"
        }
      ],
      "stateMutability": "view",
      "type": "function"
    },
    {
      "inputs": [
        {
          "internalType": "bytes32",
          "name": "role",
          "type": "bytes32"
        }
      ],
      "name": "getRoleAdmin",
      "outputs": [
        {
          "internalType": "bytes32",
          "name": "",
          "type": "bytes32"
        }
      ],
      "stateMutability": "view",
      "type": "function"
    },
    {
      "inputs": [
        {
          "internalType": "bytes32",
          "name": "role",
          "type": "bytes32"
        },
        {
          "internalType": "address",
          "name": "account",
          "type": "address"
        }
      ],
      "name": "grantRole",
      "outputs": [],
      "stateMutability": "nonpayable",
      "type": "function"
    },
    {
      "inputs": [
        {
          "internalType": "bytes32",
          "name": "role",
          "type": "bytes32"
        },
        {
          "internalType": "address",
          "name": "account",
          "type": "address"
        }
      ],
      "name": "hasRole",
      "outputs": [
        {
          "internalType": "bool",
          "name": "",
          "type": "bool"
        }
      ],
      "stateMutability": "view",
      "type": "function"
    },
    {
      "inputs": [],
      "name": "nonce",
      "outputs": [
        {
          "internalType": "uint256",
          "name": "",
          "type": "uint256"
        }
      ],
      "stateMutability": "view",
      "type": "function"
    },
    {
      "inputs": [
        {
          "internalType": "uint256",
          "name": "",
          "type": "uint256"
        }
      ],
      "name": "processedNonces",
      "outputs": [
        {
          "internalType": "bool",
          "name": "",
          "type": "bool"
        }
      ],
      "stateMutability": "view",
      "type": "function"
    },
    {
      "inputs": [
        {
          "internalType": "bytes32",
          "name": "role",
          "type": "bytes32"
        },
        {
          "internalType": "address",
          "name": "account",
          "type": "address"
        }
      ],
      "name": "renounceRole",
      "outputs": [],
      "stateMutability": "nonpayable",
      "type": "function"
    },
    {
      "inputs": [
        {
          "internalType": "bytes32",
          "name": "role",
          "type": "bytes32"
        },
        {
          "internalType": "address",
          "name": "account",
          "type": "address"
        }
      ],
      "name": "revokeRole",
      "outputs": [],
      "stateMutability": "nonpayable",
      "type": "function"
    },
    {
      "inputs": [
        {
          "internalType": "bytes4",
          "name": "interfaceId",
          "type": "bytes4"
        }
      ],
      "name": "supportsInterface",
      "outputs": [
        {
          "internalType": "bool",
          "name": "",
          "type": "bool"
        }
      ],
      "stateMutability": "view",
      "type": "function"
    },
    {
      "inputs": [],
      "name": "token",
      "outputs": [
        {
          "internalType": "contract IERC20",
          "name": "",
          "type": "address"
        }
      ],
      "stateMutability": "view",
      "type": "function"
    },
    {
      "inputs": [
        {
          "internalType": "address",
          "name": "admin",
          "type": "address"
        }
      ],
      "name": "hasAdminRole",
      "outputs": [
        {
          "internalType": "bool",
          "name": "",
          "type": "bool"
        }
      ],
      "stateMutability": "view",
      "type": "function"
    },
    {
      "inputs": [
        {
          "internalType": "address",
          "name": "to",
          "type": "address"
        },
        {
          "internalType": "uint256",
          "name": "amount",
          "type": "uint256"
        }
      ],
      "name": "transferToBSC",
      "outputs": [],
      "stateMutability": "nonpayable",
      "type": "function"
    },
    {
      "inputs": [
        {
          "internalType": "address",
          "name": "to",
          "type": "address"
        },
        {
          "internalType": "uint256",
          "name": "amount",
          "type": "uint256"
        },
        {
          "internalType": "uint256",
          "name": "otherChainNonce",
          "type": "uint256"
        }
      ],
      "name": "returnToETH",
      "outputs": [],
      "stateMutability": "nonpayable",
      "type": "function"
    }
  ],
  "bytecode": "0x60806040527fa49807205ce4d355092ef5a8a18f56e8913cf4a201fbe287825b095693c217756001553480156200003557600080fd5b5060405162001ec938038062001ec983398181016040528101906200005b91906200025f565b81600260006101000a81548173ffffffffffffffffffffffffffffffffffffffff021916908373ffffffffffffffffffffffffffffffffffffffff160217905550620000b060015482620000b860201b60201c565b50506200031c565b620000ca8282620000ce60201b60201c565b5050565b620000e08282620001bf60201b60201c565b620001bb57600160008084815260200190815260200160002060000160008373ffffffffffffffffffffffffffffffffffffffff1673ffffffffffffffffffffffffffffffffffffffff16815260200190815260200160002060006101000a81548160ff021916908315150217905550620001606200022960201b60201c565b73ffffffffffffffffffffffffffffffffffffffff168173ffffffffffffffffffffffffffffffffffffffff16837f2f8788117e7eff1d82e926ec794901d17c78024a50270940304540a733656f0d60405160405180910390a45b5050565b600080600084815260200190815260200160002060000160008373ffffffffffffffffffffffffffffffffffffffff1673ffffffffffffffffffffffffffffffffffffffff16815260200190815260200160002060009054906101000a900460ff16905092915050565b600033905090565b6000815190506200024281620002e8565b92915050565b600081519050620002598162000302565b92915050565b600080604083850312156200027357600080fd5b6000620002838582860162000248565b9250506020620002968582860162000231565b9150509250929050565b6000620002ad82620002c8565b9050919050565b6000620002c182620002a0565b9050919050565b600073ffffffffffffffffffffffffffffffffffffffff82169050919050565b620002f381620002a0565b8114620002ff57600080fd5b50565b6200030d81620002b4565b81146200031957600080fd5b50565b611b9d806200032c6000396000f3fe608060405234801561001057600080fd5b50600436106100ea5760003560e01c806391dae5191161008c578063c395fcb311610066578063c395fcb31461025d578063d547741f1461028d578063f16e75d0146102a9578063fc0c546a146102c5576100ea565b806391dae519146101f1578063a217fddf14610221578063affed0e01461023f576100ea565b806336568abe116100c857806336568abe1461016b5780635e36d4931461018757806375b238fc146101a357806391d14854146101c1576100ea565b806301ffc9a7146100ef578063248a9ca31461011f5780632f2ff15d1461014f575b600080fd5b61010960048036038101906101049190611231565b6102e3565b6040516101169190611711565b60405180910390f35b610139600480360381019061013491906111cc565b61035d565b604051610146919061172c565b60405180910390f35b610169600480360381019061016491906111f5565b61037c565b005b610185600480360381019061018091906111f5565b6103a5565b005b6101a1600480360381019061019c9190611154565b610428565b005b6101ab610595565b6040516101b8919061172c565b60405180910390f35b6101db60048036038101906101d691906111f5565b61059b565b6040516101e89190611711565b60405180910390f35b61020b6004803603810190610206919061125a565b610605565b6040516102189190611711565b60405180910390f35b610229610625565b604051610236919061172c565b60405180910390f35b61024761062c565b6040516102549190611864565b60405180910390f35b610277600480360381019061027291906110ef565b610632565b6040516102849190611711565b60405180910390f35b6102a760048036038101906102a291906111f5565b610647565b005b6102c360048036038101906102be9190611118565b610670565b005b6102cd61071a565b6040516102da9190611747565b60405180910390f35b60007f7965db0b000000000000000000000000000000000000000000000000000000007bffffffffffffffffffffffffffffffffffffffffffffffffffffffff1916827bffffffffffffffffffffffffffffffffffffffffffffffffffffffff19161480610356575061035582610740565b5b9050919050565b6000806000838152602001908152602001600020600101549050919050565b6103858261035d565b610396816103916107aa565b6107b2565b6103a0838361084f565b505050565b6103ad6107aa565b73ffffffffffffffffffffffffffffffffffffffff168173ffffffffffffffffffffffffffffffffffffffff161461041a576040517f08c379a000000000000000000000000000000000000000000000000000000000815260040161041190611844565b60405180910390fd5b610424828261092f565b5050565b6104346001543361059b565b610473576040517f08c379a000000000000000000000000000000000000000000000000000000000815260040161046a906117e4565b60405180910390fd5b600015156004600083815260200190815260200160002060009054906101000a900460ff161515146104da576040517f08c379a00000000000000000000000000000000000000000000000000000000081526004016104d1906117c4565b60405180910390fd5b60016004600083815260200190815260200160002060006101000a81548160ff0219169083151502179055506105538383600260009054906101000a900473ffffffffffffffffffffffffffffffffffffffff1673ffffffffffffffffffffffffffffffffffffffff16610a109092919063ffffffff16565b7f5a05b25b9c6d7759939a027fbfc7f6b33139a796f02d16b8da02f675852c3ed58383428460405161058894939291906116cc565b60405180910390a1505050565b60015481565b600080600084815260200190815260200160002060000160008373ffffffffffffffffffffffffffffffffffffffff1673ffffffffffffffffffffffffffffffffffffffff16815260200190815260200160002060009054906101000a900460ff16905092915050565b60046020528060005260406000206000915054906101000a900460ff1681565b6000801b81565b60035481565b60006106406001548361059b565b9050919050565b6106508261035d565b6106618161065c6107aa565b6107b2565b61066b838361092f565b505050565b6106bf333083600260009054906101000a900473ffffffffffffffffffffffffffffffffffffffff1673ffffffffffffffffffffffffffffffffffffffff16610a96909392919063ffffffff16565b7f8acd1ecae61e8110bb95b8182cd546949fd28b6787031af9250f627ad22dd5f68282426003546040516106f694939291906116cc565b60405180910390a16003600081548092919061071190611a6b565b91905055505050565b600260009054906101000a900473ffffffffffffffffffffffffffffffffffffffff1681565b60007f01ffc9a7000000000000000000000000000000000000000000000000000000007bffffffffffffffffffffffffffffffffffffffffffffffffffffffff1916827bffffffffffffffffffffffffffffffffffffffffffffffffffffffff1916149050919050565b600033905090565b6107bc828261059b565b61084b576107e18173ffffffffffffffffffffffffffffffffffffffff166014610b1f565b6107ef8360001c6020610b1f565b604051602001610800929190611632565b6040516020818303038152906040526040517f08c379a00000000000000000000000000000000000000000000000000000000081526004016108429190611762565b60405180910390fd5b5050565b610859828261059b565b61092b57600160008084815260200190815260200160002060000160008373ffffffffffffffffffffffffffffffffffffffff1673ffffffffffffffffffffffffffffffffffffffff16815260200190815260200160002060006101000a81548160ff0219169083151502179055506108d06107aa565b73ffffffffffffffffffffffffffffffffffffffff168173ffffffffffffffffffffffffffffffffffffffff16837f2f8788117e7eff1d82e926ec794901d17c78024a50270940304540a733656f0d60405160405180910390a45b5050565b610939828261059b565b15610a0c57600080600084815260200190815260200160002060000160008373ffffffffffffffffffffffffffffffffffffffff1673ffffffffffffffffffffffffffffffffffffffff16815260200190815260200160002060006101000a81548160ff0219169083151502179055506109b16107aa565b73ffffffffffffffffffffffffffffffffffffffff168173ffffffffffffffffffffffffffffffffffffffff16837ff6391f5c32d9c69d2a47ea670b442974b53935d1edc7fd64eb21e047a839171b60405160405180910390a45b5050565b610a918363a9059cbb60e01b8484604051602401610a2f9291906116a3565b604051602081830303815290604052907bffffffffffffffffffffffffffffffffffffffffffffffffffffffff19166020820180517bffffffffffffffffffffffffffffffffffffffffffffffffffffffff8381831617835250505050610e19565b505050565b610b19846323b872dd60e01b858585604051602401610ab79392919061166c565b604051602081830303815290604052907bffffffffffffffffffffffffffffffffffffffffffffffffffffffff19166020820180517bffffffffffffffffffffffffffffffffffffffffffffffffffffffff8381831617835250505050610e19565b50505050565b606060006002836002610b329190611912565b610b3c91906118bc565b67ffffffffffffffff811115610b7b577f4e487b7100000000000000000000000000000000000000000000000000000000600052604160045260246000fd5b6040519080825280601f01601f191660200182016040528015610bad5781602001600182028036833780820191505090505b5090507f300000000000000000000000000000000000000000000000000000000000000081600081518110610c0b577f4e487b7100000000000000000000000000000000000000000000000000000000600052603260045260246000fd5b60200101907effffffffffffffffffffffffffffffffffffffffffffffffffffffffffffff1916908160001a9053507f780000000000000000000000000000000000000000000000000000000000000081600181518110610c95577f4e487b7100000000000000000000000000000000000000000000000000000000600052603260045260246000fd5b60200101907effffffffffffffffffffffffffffffffffffffffffffffffffffffffffffff1916908160001a90535060006001846002610cd59190611912565b610cdf91906118bc565b90505b6001811115610dcb577f3031323334353637383961626364656600000000000000000000000000000000600f861660108110610d47577f4e487b7100000000000000000000000000000000000000000000000000000000600052603260045260246000fd5b1a60f81b828281518110610d84577f4e487b7100000000000000000000000000000000000000000000000000000000600052603260045260246000fd5b60200101907effffffffffffffffffffffffffffffffffffffffffffffffffffffffffffff1916908160001a905350600485901c945080610dc490611a41565b9050610ce2565b5060008414610e0f576040517f08c379a0000000000000000000000000000000000000000000000000000000008152600401610e0690611784565b60405180910390fd5b8091505092915050565b6000610e7b826040518060400160405280602081526020017f5361666545524332303a206c6f772d6c6576656c2063616c6c206661696c65648152508573ffffffffffffffffffffffffffffffffffffffff16610ee09092919063ffffffff16565b9050600081511115610edb5780806020019051810190610e9b91906111a3565b610eda576040517f08c379a0000000000000000000000000000000000000000000000000000000008152600401610ed190611824565b60405180910390fd5b5b505050565b6060610eef8484600085610ef8565b90509392505050565b606082471015610f3d576040517f08c379a0000000000000000000000000000000000000000000000000000000008152600401610f34906117a4565b60405180910390fd5b610f468561100c565b610f85576040517f08c379a0000000000000000000000000000000000000000000000000000000008152600401610f7c90611804565b60405180910390fd5b6000808673ffffffffffffffffffffffffffffffffffffffff168587604051610fae919061161b565b60006040518083038185875af1925050503d8060008114610feb576040519150601f19603f3d011682016040523d82523d6000602084013e610ff0565b606091505b509150915061100082828661101f565b92505050949350505050565b600080823b905060008111915050919050565b6060831561102f5782905061107f565b6000835111156110425782518084602001fd5b816040517f08c379a00000000000000000000000000000000000000000000000000000000081526004016110769190611762565b60405180910390fd5b9392505050565b60008135905061109581611af4565b92915050565b6000815190506110aa81611b0b565b92915050565b6000813590506110bf81611b22565b92915050565b6000813590506110d481611b39565b92915050565b6000813590506110e981611b50565b92915050565b60006020828403121561110157600080fd5b600061110f84828501611086565b91505092915050565b6000806040838503121561112b57600080fd5b600061113985828601611086565b925050602061114a858286016110da565b9150509250929050565b60008060006060848603121561116957600080fd5b600061117786828701611086565b9350506020611188868287016110da565b9250506040611199868287016110da565b9150509250925092565b6000602082840312156111b557600080fd5b60006111c38482850161109b565b91505092915050565b6000602082840312156111de57600080fd5b60006111ec848285016110b0565b91505092915050565b6000806040838503121561120857600080fd5b6000611216858286016110b0565b925050602061122785828601611086565b9150509250929050565b60006020828403121561124357600080fd5b6000611251848285016110c5565b91505092915050565b60006020828403121561126c57600080fd5b600061127a848285016110da565b91505092915050565b61128c8161196c565b82525050565b61129b8161197e565b82525050565b6112aa8161198a565b82525050565b60006112bb8261187f565b6112c58185611895565b93506112d5818560208601611a0e565b80840191505092915050565b6112ea816119ea565b82525050565b60006112fb8261188a565b61130581856118a0565b9350611315818560208601611a0e565b61131e81611ae3565b840191505092915050565b60006113348261188a565b61133e81856118b1565b935061134e818560208601611a0e565b80840191505092915050565b60006113676020836118a0565b91507f537472696e67733a20686578206c656e67746820696e73756666696369656e746000830152602082019050919050565b60006113a76026836118a0565b91507f416464726573733a20696e73756666696369656e742062616c616e636520666f60008301527f722063616c6c00000000000000000000000000000000000000000000000000006020830152604082019050919050565b600061140d601a836118a0565b91507f7472616e7366657220616c72656164792070726f6365737365640000000000006000830152602082019050919050565b600061144d6016836118a0565b91507f43616c6c6572206973206e6f7420616e2061646d696e000000000000000000006000830152602082019050919050565b600061148d601d836118a0565b91507f416464726573733a2063616c6c20746f206e6f6e2d636f6e74726163740000006000830152602082019050919050565b60006114cd6017836118b1565b91507f416363657373436f6e74726f6c3a206163636f756e74200000000000000000006000830152601782019050919050565b600061150d602a836118a0565b91507f5361666545524332303a204552433230206f7065726174696f6e20646964206e60008301527f6f742073756363656564000000000000000000000000000000000000000000006020830152604082019050919050565b60006115736011836118b1565b91507f206973206d697373696e6720726f6c65200000000000000000000000000000006000830152601182019050919050565b60006115b3602f836118a0565b91507f416363657373436f6e74726f6c3a2063616e206f6e6c792072656e6f756e636560008301527f20726f6c657320666f722073656c6600000000000000000000000000000000006020830152604082019050919050565b611615816119e0565b82525050565b600061162782846112b0565b915081905092915050565b600061163d826114c0565b91506116498285611329565b915061165482611566565b91506116608284611329565b91508190509392505050565b60006060820190506116816000830186611283565b61168e6020830185611283565b61169b604083018461160c565b949350505050565b60006040820190506116b86000830185611283565b6116c5602083018461160c565b9392505050565b60006080820190506116e16000830187611283565b6116ee602083018661160c565b6116fb604083018561160c565b611708606083018461160c565b95945050505050565b60006020820190506117266000830184611292565b92915050565b600060208201905061174160008301846112a1565b92915050565b600060208201905061175c60008301846112e1565b92915050565b6000602082019050818103600083015261177c81846112f0565b905092915050565b6000602082019050818103600083015261179d8161135a565b9050919050565b600060208201905081810360008301526117bd8161139a565b9050919050565b600060208201905081810360008301526117dd81611400565b9050919050565b600060208201905081810360008301526117fd81611440565b9050919050565b6000602082019050818103600083015261181d81611480565b9050919050565b6000602082019050818103600083015261183d81611500565b9050919050565b6000602082019050818103600083015261185d816115a6565b9050919050565b6000602082019050611879600083018461160c565b92915050565b600081519050919050565b600081519050919050565b600081905092915050565b600082825260208201905092915050565b600081905092915050565b60006118c7826119e0565b91506118d2836119e0565b9250827fffffffffffffffffffffffffffffffffffffffffffffffffffffffffffffffff0382111561190757611906611ab4565b5b828201905092915050565b600061191d826119e0565b9150611928836119e0565b9250817fffffffffffffffffffffffffffffffffffffffffffffffffffffffffffffffff048311821515161561196157611960611ab4565b5b828202905092915050565b6000611977826119c0565b9050919050565b60008115159050919050565b6000819050919050565b60007fffffffff0000000000000000000000000000000000000000000000000000000082169050919050565b600073ffffffffffffffffffffffffffffffffffffffff82169050919050565b6000819050919050565b60006119f5826119fc565b9050919050565b6000611a07826119c0565b9050919050565b60005b83811015611a2c578082015181840152602081019050611a11565b83811115611a3b576000848401525b50505050565b6000611a4c826119e0565b91506000821415611a6057611a5f611ab4565b5b600182039050919050565b6000611a76826119e0565b91507fffffffffffffffffffffffffffffffffffffffffffffffffffffffffffffffff821415611aa957611aa8611ab4565b5b600182019050919050565b7f4e487b7100000000000000000000000000000000000000000000000000000000600052601160045260246000fd5b6000601f19601f8301169050919050565b611afd8161196c565b8114611b0857600080fd5b50565b611b148161197e565b8114611b1f57600080fd5b50565b611b2b8161198a565b8114611b3657600080fd5b50565b611b4281611994565b8114611b4d57600080fd5b50565b611b59816119e0565b8114611b6457600080fd5b5056fea2646970667358221220dc5d6a20f9d73ab67faaac6ccc70f6b9113a57910e4efdb2f4ce74b4f886aa3064736f6c63430008000033",
  "immutableReferences": {},
  "source": "// SPDX-License-Identifier: MIT\n\npragma solidity ^0.8.0;\n\nimport \"@openzeppelin/contracts/access/AccessControl.sol\";\nimport \"@openzeppelin/contracts/token/ERC20/utils/SafeERC20.sol\";\n\n\ncontract BridgeETH is AccessControl{\n  using SafeERC20 for IERC20;\n  bytes32 public ADMIN_ROLE = keccak256(\"ADMIN_ROLE\");\n\n  IERC20 public token;\n  uint public nonce;\n  mapping(uint => bool) public processedNonces;\n\n  event TransferingToBSC(\n    address to,\n    uint amount,\n    uint date,\n    uint nonce\n  );\n\n  event ReturningToEth(\n    address to,\n    uint amount,\n    uint date,\n    uint nonce\n  );\n\n  constructor(IERC20 _token, address admin) {\n    token = IERC20(_token);\n\n    _setupRole(ADMIN_ROLE, admin);\n  }\n\n  function hasAdminRole (address admin) public view returns(bool) {\n      return hasRole(ADMIN_ROLE, admin);\n  }\n\n  function transferToBSC(address to, uint amount) external {\n    token.safeTransferFrom(msg.sender, address(this), amount);\n    emit TransferingToBSC(\n      to,\n      amount,\n      block.timestamp,\n      nonce\n    );\n    nonce++;\n  }\n\n  function returnToETH( address to, uint amount, uint otherChainNonce) external {\n    require(hasRole(ADMIN_ROLE, msg.sender), \"Caller is not an admin\");\n    require(processedNonces[otherChainNonce] == false, 'transfer already processed');\n    processedNonces[otherChainNonce] = true;\n    token.safeTransfer(to, amount);\n    emit ReturningToEth(\n      to,\n      amount,\n      block.timestamp,\n      otherChainNonce\n    );\n  }\n}",
  "sourcePath": "/Users/christopherdancy/Blockchain/0chain/contracts/BridgeETH.sol",
  "compiler": {
    "name": "solc",
    "version": "0.8.0+commit.c7dfd78e.Emscripten.clang"
  },
  "schemaVersion": "3.3.1",
  "updatedAt": "2021-06-01T20:29:15.770Z",
  "devdoc": {
    "kind": "dev",
    "methods": {
      "getRoleAdmin(bytes32)": {
        "details": "Returns the admin role that controls `role`. See {grantRole} and {revokeRole}. To change a role's admin, use {_setRoleAdmin}."
      },
      "grantRole(bytes32,address)": {
        "details": "Grants `role` to `account`. If `account` had not been already granted `role`, emits a {RoleGranted} event. Requirements: - the caller must have ``role``'s admin role."
      },
      "hasRole(bytes32,address)": {
        "details": "Returns `true` if `account` has been granted `role`."
      },
      "renounceRole(bytes32,address)": {
        "details": "Revokes `role` from the calling account. Roles are often managed via {grantRole} and {revokeRole}: this function's purpose is to provide a mechanism for accounts to lose their privileges if they are compromised (such as when a trusted device is misplaced). If the calling account had been granted `role`, emits a {RoleRevoked} event. Requirements: - the caller must be `account`."
      },
      "revokeRole(bytes32,address)": {
        "details": "Revokes `role` from `account`. If `account` had been granted `role`, emits a {RoleRevoked} event. Requirements: - the caller must have ``role``'s admin role."
      },
      "supportsInterface(bytes4)": {
        "details": "See {IERC165-supportsInterface}."
      }
    },
    "version": 1
  },
  "userdoc": {
    "kind": "user",
    "methods": {},
    "version": 1
  }
}