{
  "contractName": "BridgeBSC",
  "abi": [
    {
      "inputs": [
        {
          "internalType": "address",
          "name": "_token",
          "type": "address"
        },
        {
          "internalType": "address",
          "name": "minter",
          "type": "address"
        },
        {
          "internalType": "address",
          "name": "admin",
          "type": "address"
        }
      ],
      "stateMutability": "nonpayable",
      "type": "constructor"
    },
    {
      "anonymous": false,
      "inputs": [
        {
          "indexed": true,
          "internalType": "bytes32",
          "name": "role",
          "type": "bytes32"
        },
        {
          "indexed": true,
          "internalType": "bytes32",
          "name": "previousAdminRole",
          "type": "bytes32"
        },
        {
          "indexed": true,
          "internalType": "bytes32",
          "name": "newAdminRole",
          "type": "bytes32"
        }
      ],
      "name": "RoleAdminChanged",
      "type": "event"
    },
    {
      "anonymous": false,
      "inputs": [
        {
          "indexed": true,
          "internalType": "bytes32",
          "name": "role",
          "type": "bytes32"
        },
        {
          "indexed": true,
          "internalType": "address",
          "name": "account",
          "type": "address"
        },
        {
          "indexed": true,
          "internalType": "address",
          "name": "sender",
          "type": "address"
        }
      ],
      "name": "RoleGranted",
      "type": "event"
    },
    {
      "anonymous": false,
      "inputs": [
        {
          "indexed": true,
          "internalType": "bytes32",
          "name": "role",
          "type": "bytes32"
        },
        {
          "indexed": true,
          "internalType": "address",
          "name": "account",
          "type": "address"
        },
        {
          "indexed": true,
          "internalType": "address",
          "name": "sender",
          "type": "address"
        }
      ],
      "name": "RoleRevoked",
      "type": "event"
    },
    {
      "anonymous": false,
      "inputs": [
        {
          "indexed": false,
          "internalType": "address",
          "name": "from",
          "type": "address"
        },
        {
          "indexed": false,
          "internalType": "address",
          "name": "to",
          "type": "address"
        },
        {
          "indexed": false,
          "internalType": "uint256",
          "name": "amount",
          "type": "uint256"
        },
        {
          "indexed": false,
          "internalType": "uint256",
          "name": "date",
          "type": "uint256"
        },
        {
          "indexed": false,
          "internalType": "uint256",
          "name": "nonce",
          "type": "uint256"
        },
        {
          "indexed": true,
          "internalType": "enum BridgeBSC.Step",
          "name": "step",
          "type": "uint8"
        }
      ],
      "name": "Transfer",
      "type": "event"
    },
    {
      "inputs": [],
      "name": "ADMIN_ROLE",
      "outputs": [
        {
          "internalType": "bytes32",
          "name": "",
          "type": "bytes32"
        }
      ],
      "stateMutability": "view",
      "type": "function"
    },
    {
      "inputs": [],
      "name": "DEFAULT_ADMIN_ROLE",
      "outputs": [
        {
          "internalType": "bytes32",
          "name": "",
          "type": "bytes32"
        }
      ],
      "stateMutability": "view",
      "type": "function"
    },
    {
      "inputs": [],
      "name": "MINTER_ROLE",
      "outputs": [
        {
          "internalType": "bytes32",
          "name": "",
          "type": "bytes32"
        }
      ],
      "stateMutability": "view",
      "type": "function"
    },
    {
      "inputs": [
        {
          "internalType": "bytes32",
          "name": "role",
          "type": "bytes32"
        }
      ],
      "name": "getRoleAdmin",
      "outputs": [
        {
          "internalType": "bytes32",
          "name": "",
          "type": "bytes32"
        }
      ],
      "stateMutability": "view",
      "type": "function"
    },
    {
      "inputs": [
        {
          "internalType": "bytes32",
          "name": "role",
          "type": "bytes32"
        },
        {
          "internalType": "address",
          "name": "account",
          "type": "address"
        }
      ],
      "name": "grantRole",
      "outputs": [],
      "stateMutability": "nonpayable",
      "type": "function"
    },
    {
      "inputs": [
        {
          "internalType": "bytes32",
          "name": "role",
          "type": "bytes32"
        },
        {
          "internalType": "address",
          "name": "account",
          "type": "address"
        }
      ],
      "name": "hasRole",
      "outputs": [
        {
          "internalType": "bool",
          "name": "",
          "type": "bool"
        }
      ],
      "stateMutability": "view",
      "type": "function"
    },
    {
      "inputs": [],
      "name": "nonce",
      "outputs": [
        {
          "internalType": "uint256",
          "name": "",
          "type": "uint256"
        }
      ],
      "stateMutability": "view",
      "type": "function"
    },
    {
      "inputs": [
        {
          "internalType": "uint256",
          "name": "",
          "type": "uint256"
        }
      ],
      "name": "processedNonces",
      "outputs": [
        {
          "internalType": "bool",
          "name": "",
          "type": "bool"
        }
      ],
      "stateMutability": "view",
      "type": "function"
    },
    {
      "inputs": [
        {
          "internalType": "bytes32",
          "name": "role",
          "type": "bytes32"
        },
        {
          "internalType": "address",
          "name": "account",
          "type": "address"
        }
      ],
      "name": "renounceRole",
      "outputs": [],
      "stateMutability": "nonpayable",
      "type": "function"
    },
    {
      "inputs": [
        {
          "internalType": "bytes32",
          "name": "role",
          "type": "bytes32"
        },
        {
          "internalType": "address",
          "name": "account",
          "type": "address"
        }
      ],
      "name": "revokeRole",
      "outputs": [],
      "stateMutability": "nonpayable",
      "type": "function"
    },
    {
      "inputs": [
        {
          "internalType": "bytes4",
          "name": "interfaceId",
          "type": "bytes4"
        }
      ],
      "name": "supportsInterface",
      "outputs": [
        {
          "internalType": "bool",
          "name": "",
          "type": "bool"
        }
      ],
      "stateMutability": "view",
      "type": "function"
    },
    {
      "inputs": [],
      "name": "token",
      "outputs": [
        {
          "internalType": "contract IMintBurn",
          "name": "",
          "type": "address"
        }
      ],
      "stateMutability": "view",
      "type": "function"
    },
    {
      "inputs": [
        {
          "internalType": "address",
          "name": "newMinter",
          "type": "address"
        }
      ],
      "name": "grantMinterRole",
      "outputs": [],
      "stateMutability": "nonpayable",
      "type": "function"
    },
    {
      "inputs": [
        {
          "internalType": "address",
          "name": "previousMinter",
          "type": "address"
        }
      ],
      "name": "revokeMinterRole",
      "outputs": [],
      "stateMutability": "nonpayable",
      "type": "function"
    },
    {
      "inputs": [
        {
          "internalType": "address",
          "name": "to_",
          "type": "address"
        },
        {
          "internalType": "uint256",
          "name": "amount_",
          "type": "uint256"
        }
      ],
      "name": "transferFromBSCToETH",
      "outputs": [],
      "stateMutability": "nonpayable",
      "type": "function"
    },
    {
      "inputs": [
        {
          "internalType": "address",
          "name": "from",
          "type": "address"
        },
        {
          "internalType": "address",
          "name": "to",
          "type": "address"
        },
        {
          "internalType": "uint256",
          "name": "amount",
          "type": "uint256"
        },
        {
          "internalType": "uint256",
          "name": "otherChainNonce",
          "type": "uint256"
        }
      ],
      "name": "transferFromETHToBSC",
      "outputs": [],
      "stateMutability": "nonpayable",
      "type": "function"
    }
  ],
  "bytecode": "0x60806040527f9f2df0fed2c77648de5860a4cc508cd0818c85b8b8a1ab4ceeef8d981c8956a66001557fa49807205ce4d355092ef5a8a18f56e8913cf4a201fbe287825b095693c217756002553480156200005957600080fd5b5060405162000e4938038062000e498339810160408190526200007c91620001f5565b600380546001600160a01b0319166001600160a01b038516179055600254620000a69082620000d4565b600154620000b59083620000d4565b620000cb600154600254620000e460201b60201c565b5050506200023e565b620000e0828262000138565b5050565b600082815260208190526040902060010154819060405184907fbd79b86ffe0ab8e8776151514217cd7cacd52c909f66475c3af44e129f0b00ff90600090a460009182526020829052604090912060010155565b6000828152602081815260408083206001600160a01b038516845290915290205460ff16620000e0576000828152602081815260408083206001600160a01b03851684529091529020805460ff19166001179055620001943390565b6001600160a01b0316816001600160a01b0316837f2f8788117e7eff1d82e926ec794901d17c78024a50270940304540a733656f0d60405160405180910390a45050565b80516001600160a01b0381168114620001f057600080fd5b919050565b6000806000606084860312156200020a578283fd5b6200021584620001d8565b92506200022560208501620001d8565b91506200023560408501620001d8565b90509250925092565b610bfb806200024e6000396000f3fe608060405234801561001057600080fd5b50600436106101005760003560e01c806391d1485411610097578063b88f5de511610066578063b88f5de51461020f578063d539139314610222578063d547741f1461022b578063fc0c546a1461023e57600080fd5b806391d14854146101c857806391dae519146101db578063a217fddf146101fe578063affed0e01461020657600080fd5b80633dd1eb61116100d35780633dd1eb611461018657806348de587b1461019957806369e2f0fb146101ac57806375b238fc146101bf57600080fd5b806301ffc9a714610105578063248a9ca31461012d5780632f2ff15d1461015e57806336568abe14610173575b600080fd5b610118610113366004610a46565b610269565b60405190151581526020015b60405180910390f35b61015061013b366004610a03565b60009081526020819052604090206001015490565b604051908152602001610124565b61017161016c366004610a1b565b6102a0565b005b610171610181366004610a1b565b6102cb565b61017161019436600461097f565b61034e565b6101716101a7366004610999565b61035d565b6101716101ba36600461097f565b6104f4565b61015060025481565b6101186101d6366004610a1b565b610500565b6101186101e9366004610a03565b60056020526000908152604090205460ff1681565b610150600081565b61015060045481565b61017161021d3660046109da565b610529565b61015060015481565b610171610239366004610a1b565b610607565b600354610251906001600160a01b031681565b6040516001600160a01b039091168152602001610124565b60006001600160e01b03198216637965db0b60e01b148061029a57506301ffc9a760e01b6001600160e01b03198316145b92915050565b6000828152602081905260409020600101546102bc813361062d565b6102c68383610691565b505050565b6001600160a01b03811633146103405760405162461bcd60e51b815260206004820152602f60248201527f416363657373436f6e74726f6c3a2063616e206f6e6c792072656e6f756e636560448201526e103937b632b9903337b91039b2b63360891b60648201526084015b60405180910390fd5b61034a8282610715565b5050565b61035a600154826102a0565b50565b61036960015433610500565b6103ae5760405162461bcd60e51b815260206004820152601660248201527521b0b63632b91034b9903737ba10309036b4b73a32b960511b6044820152606401610337565b60008181526005602052604090205460ff161561040d5760405162461bcd60e51b815260206004820152601a60248201527f7472616e7366657220616c72656164792070726f6365737365640000000000006044820152606401610337565b60008181526005602052604090819020805460ff1916600117905560035490516340c10f1960e01b81526001600160a01b03858116600483015260248201859052909116906340c10f1990604401600060405180830381600087803b15801561047557600080fd5b505af1158015610489573d6000803e3d6000fd5b5060019250610496915050565b604080516001600160a01b03808816825286166020820152908101849052426060820152608081018390527f27757542a5e1b9e8cef80f584e094d4eb63b9802f355c61b3640b71b618d5c8e9060a00160405180910390a250505050565b61035a60015482610607565b6000918252602082815260408084206001600160a01b0393909316845291905290205460ff1690565b600354604051632770a7eb60e21b8152336004820152602481018390526001600160a01b0390911690639dc29fac90604401600060405180830381600087803b15801561057557600080fd5b505af1158015610589573d6000803e3d6000fd5b5060009250610596915050565b600454604080513381526001600160a01b03861660208201528082018590524260608201526080810192909252517f27757542a5e1b9e8cef80f584e094d4eb63b9802f355c61b3640b71b618d5c8e9181900360a00190a2600480549060006105fe83610b94565b91905055505050565b600082815260208190526040902060010154610623813361062d565b6102c68383610715565b6106378282610500565b61034a5761064f816001600160a01b0316601461077a565b61065a83602061077a565b60405160200161066b929190610a6e565b60408051601f198184030181529082905262461bcd60e51b825261033791600401610ae3565b61069b8282610500565b61034a576000828152602081815260408083206001600160a01b03851684529091529020805460ff191660011790556106d13390565b6001600160a01b0316816001600160a01b0316837f2f8788117e7eff1d82e926ec794901d17c78024a50270940304540a733656f0d60405160405180910390a45050565b61071f8282610500565b1561034a576000828152602081815260408083206001600160a01b0385168085529252808320805460ff1916905551339285917ff6391f5c32d9c69d2a47ea670b442974b53935d1edc7fd64eb21e047a839171b9190a45050565b60606000610789836002610b2e565b610794906002610b16565b67ffffffffffffffff8111156107ba57634e487b7160e01b600052604160045260246000fd5b6040519080825280601f01601f1916602001820160405280156107e4576020820181803683370190505b509050600360fc1b8160008151811061080d57634e487b7160e01b600052603260045260246000fd5b60200101906001600160f81b031916908160001a905350600f60fb1b8160018151811061084a57634e487b7160e01b600052603260045260246000fd5b60200101906001600160f81b031916908160001a905350600061086e846002610b2e565b610879906001610b16565b90505b600181111561090d576f181899199a1a9b1b9c1cb0b131b232b360811b85600f16601081106108bb57634e487b7160e01b600052603260045260246000fd5b1a60f81b8282815181106108df57634e487b7160e01b600052603260045260246000fd5b60200101906001600160f81b031916908160001a90535060049490941c9361090681610b7d565b905061087c565b50831561095c5760405162461bcd60e51b815260206004820181905260248201527f537472696e67733a20686578206c656e67746820696e73756666696369656e746044820152606401610337565b9392505050565b80356001600160a01b038116811461097a57600080fd5b919050565b600060208284031215610990578081fd5b61095c82610963565b600080600080608085870312156109ae578283fd5b6109b785610963565b93506109c560208601610963565b93969395505050506040820135916060013590565b600080604083850312156109ec578182fd5b6109f583610963565b946020939093013593505050565b600060208284031215610a14578081fd5b5035919050565b60008060408385031215610a2d578182fd5b82359150610a3d60208401610963565b90509250929050565b600060208284031215610a57578081fd5b81356001600160e01b03198116811461095c578182fd5b7f416363657373436f6e74726f6c3a206163636f756e7420000000000000000000815260008351610aa6816017850160208801610b4d565b7001034b99036b4b9b9b4b733903937b6329607d1b6017918401918201528351610ad7816028840160208801610b4d565b01602801949350505050565b6020815260008251806020840152610b02816040850160208701610b4d565b601f01601f19169190910160400192915050565b60008219821115610b2957610b29610baf565b500190565b6000816000190483118215151615610b4857610b48610baf565b500290565b60005b83811015610b68578181015183820152602001610b50565b83811115610b77576000848401525b50505050565b600081610b8c57610b8c610baf565b506000190190565b6000600019821415610ba857610ba8610baf565b5060010190565b634e487b7160e01b600052601160045260246000fdfea26469706673582212205a4998dc875a2154af95e44c625bd9f6e6d4e771eae3bc1d63ccca8eab6632e764736f6c63430008040033",
  "immutableReferences": {},
  "source": "// SPDX-License-Identifier: MIT\n\npragma solidity ^0.8.4;\n\nimport \"@openzeppelin/contracts/access/AccessControl.sol\";\nimport '@openzeppelin/contracts/token/ERC20/IERC20.sol';\nimport './IMintBurn.sol';\n\n\ncontract BridgeBSC is AccessControl{\n  bytes32 public MINTER_ROLE = keccak256(\"MINTER_ROLE\");\n  bytes32 public ADMIN_ROLE = keccak256(\"ADMIN_ROLE\");\n\n  IMintBurn public token;\n  uint public nonce;\n  mapping(uint => bool) public processedNonces;\n\n  enum Step { Burn, Mint }\n  event Transfer(\n    address from,\n    address to,\n    uint amount,\n    uint date,\n    uint nonce,\n    Step indexed step\n  );\n\n  constructor(address _token, address minter, address admin) {\n    token = IMintBurn(_token);\n\n    _setupRole(ADMIN_ROLE, admin);\n    _setupRole(MINTER_ROLE, minter);\n    _setRoleAdmin(MINTER_ROLE, ADMIN_ROLE);\n  }\n\n  function grantMinterRole (address newMinter) public {\n      grantRole(MINTER_ROLE, newMinter);\n  }\n\n  function revokeMinterRole (address previousMinter) public {\n      revokeRole(MINTER_ROLE, previousMinter);\n  }\n\n  function transferFromBSCToETH(address to_, uint amount_) external {\n    token.burn(msg.sender, amount_);\n    emit Transfer(\n      msg.sender,\n      to_,\n      amount_,\n      block.timestamp,\n      nonce,\n      Step.Burn\n    );\n    nonce++;\n  }\n\n  function transferFromETHToBSC(address from, address to, uint amount, uint otherChainNonce) external {\n    require(hasRole(MINTER_ROLE, msg.sender), \"Caller is not a minter\");\n    require(processedNonces[otherChainNonce] == false, 'transfer already processed');\n    processedNonces[otherChainNonce] = true;\n    token.mint(to, amount);\n    emit Transfer(\n      from,\n      to,\n      amount,\n      block.timestamp,\n      otherChainNonce,\n      Step.Mint\n    );\n  }\n}",
  "sourcePath": "/Users/christopherdancy/Blockchain/0chain/contracts/BridgeBSC.sol",
  "compiler": {
    "name": "solc",
    "version": "0.8.4+commit.c7e474f2.Emscripten.clang"
  },
  "schemaVersion": "3.3.1",
  "updatedAt": "2021-05-08T15:39:50.445Z",
  "devdoc": {
    "kind": "dev",
    "methods": {
      "getRoleAdmin(bytes32)": {
        "details": "Returns the admin role that controls `role`. See {grantRole} and {revokeRole}. To change a role's admin, use {_setRoleAdmin}."
      },
      "grantRole(bytes32,address)": {
        "details": "Grants `role` to `account`. If `account` had not been already granted `role`, emits a {RoleGranted} event. Requirements: - the caller must have ``role``'s admin role."
      },
      "hasRole(bytes32,address)": {
        "details": "Returns `true` if `account` has been granted `role`."
      },
      "renounceRole(bytes32,address)": {
        "details": "Revokes `role` from the calling account. Roles are often managed via {grantRole} and {revokeRole}: this function's purpose is to provide a mechanism for accounts to lose their privileges if they are compromised (such as when a trusted device is misplaced). If the calling account had been granted `role`, emits a {RoleRevoked} event. Requirements: - the caller must be `account`."
      },
      "revokeRole(bytes32,address)": {
        "details": "Revokes `role` from `account`. If `account` had been granted `role`, emits a {RoleRevoked} event. Requirements: - the caller must have ``role``'s admin role."
      },
      "supportsInterface(bytes4)": {
        "details": "See {IERC165-supportsInterface}."
      }
    },
    "version": 1
  },
  "userdoc": {
    "kind": "user",
    "methods": {},
    "version": 1
  }
}