{
  "contractName": "BridgeBSC",
  "abi": [
    {
      "inputs": [
        {
          "internalType": "address",
          "name": "_token",
          "type": "address"
        }
      ],
      "stateMutability": "nonpayable",
      "type": "constructor"
    },
    {
      "anonymous": false,
      "inputs": [
        {
          "indexed": false,
          "internalType": "address",
          "name": "from",
          "type": "address"
        },
        {
          "indexed": false,
          "internalType": "address",
          "name": "to",
          "type": "address"
        },
        {
          "indexed": false,
          "internalType": "uint256",
          "name": "amount",
          "type": "uint256"
        },
        {
          "indexed": false,
          "internalType": "uint256",
          "name": "date",
          "type": "uint256"
        },
        {
          "indexed": false,
          "internalType": "uint256",
          "name": "nonce",
          "type": "uint256"
        },
        {
          "indexed": true,
          "internalType": "enum BridgeBSC.Step",
          "name": "step",
          "type": "uint8"
        }
      ],
      "name": "Transfer",
      "type": "event"
    },
    {
      "inputs": [],
      "name": "admin",
      "outputs": [
        {
          "internalType": "address",
          "name": "",
          "type": "address"
        }
      ],
      "stateMutability": "view",
      "type": "function"
    },
    {
      "inputs": [],
      "name": "nonce",
      "outputs": [
        {
          "internalType": "uint256",
          "name": "",
          "type": "uint256"
        }
      ],
      "stateMutability": "view",
      "type": "function"
    },
    {
      "inputs": [
        {
          "internalType": "uint256",
          "name": "",
          "type": "uint256"
        }
      ],
      "name": "processedNonces",
      "outputs": [
        {
          "internalType": "bool",
          "name": "",
          "type": "bool"
        }
      ],
      "stateMutability": "view",
      "type": "function"
    },
    {
      "inputs": [],
      "name": "token",
      "outputs": [
        {
          "internalType": "contract IMintBurn",
          "name": "",
          "type": "address"
        }
      ],
      "stateMutability": "view",
      "type": "function"
    },
    {
      "inputs": [
        {
          "internalType": "address",
          "name": "to",
          "type": "address"
        },
        {
          "internalType": "uint256",
          "name": "amount",
          "type": "uint256"
        }
      ],
      "name": "transferToETH",
      "outputs": [],
      "stateMutability": "nonpayable",
      "type": "function"
    },
    {
      "inputs": [
        {
          "internalType": "address",
          "name": "to",
          "type": "address"
        },
        {
          "internalType": "uint256",
          "name": "amount",
          "type": "uint256"
        },
        {
          "internalType": "uint256",
          "name": "otherChainNonce",
          "type": "uint256"
        }
      ],
      "name": "transferFromBSC",
      "outputs": [],
      "stateMutability": "nonpayable",
      "type": "function"
    }
  ],
  "bytecode": "0x608060405234801561001057600080fd5b506040516104bf3803806104bf83398101604081905261002f91610054565b600180546001600160a01b0319166001600160a01b0392909216919091179055610082565b600060208284031215610065578081fd5b81516001600160a01b038116811461007b578182fd5b9392505050565b61042e806100916000396000f3fe608060405234801561001057600080fd5b50600436106100625760003560e01c80634003752c146100675780634ebe10861461007c57806391dae5191461008f578063affed0e0146100c7578063f851a440146100de578063fc0c546a14610109575b600080fd5b61007a61007536600461035e565b61011c565b005b61007a61008a366004610387565b6101fa565b6100b261009d3660046103b9565b60036020526000908152604090205460ff1681565b60405190151581526020015b60405180910390f35b6100d060025481565b6040519081526020016100be565b6000546100f1906001600160a01b031681565b6040516001600160a01b0390911681526020016100be565b6001546100f1906001600160a01b031681565b600154604051632770a7eb60e21b8152336004820152602481018390526001600160a01b0390911690639dc29fac90604401600060405180830381600087803b15801561016857600080fd5b505af115801561017c573d6000803e3d6000fd5b5060009250610189915050565b600254604080513381526001600160a01b03861660208201528082018590524260608201526080810192909252517f27757542a5e1b9e8cef80f584e094d4eb63b9802f355c61b3640b71b618d5c8e9181900360a00190a2600280549060006101f1836103d1565b91905055505050565b60008181526003602052604090205460ff161561025d5760405162461bcd60e51b815260206004820152601a60248201527f7472616e7366657220616c72656164792070726f636573736564000000000000604482015260640160405180910390fd5b60008181526003602052604090819020805460ff191660019081179091555490516340c10f1960e01b81526001600160a01b03858116600483015260248201859052909116906340c10f1990604401600060405180830381600087803b1580156102c657600080fd5b505af11580156102da573d6000803e3d6000fd5b50600192506102e7915050565b604080513381526001600160a01b0386166020820152908101849052426060820152608081018390527f27757542a5e1b9e8cef80f584e094d4eb63b9802f355c61b3640b71b618d5c8e9060a00160405180910390a2505050565b80356001600160a01b038116811461035957600080fd5b919050565b60008060408385031215610370578182fd5b61037983610342565b946020939093013593505050565b60008060006060848603121561039b578081fd5b6103a484610342565b95602085013595506040909401359392505050565b6000602082840312156103ca578081fd5b5035919050565b60006000198214156103f157634e487b7160e01b81526011600452602481fd5b506001019056fea2646970667358221220bbc2612adc0f6e3a9ea5686b47afc8c99d73671e179ae28bef8e527e09a4dc5a64736f6c63430008040033",
  "immutableReferences": {},
  "source": "// SPDX-License-Identifier: MIT\n\npragma solidity ^0.8.4;\n\nimport '@openzeppelin/contracts/token/ERC20/IERC20.sol';\nimport './IMintBurn.sol';\n\n\ncontract BridgeBSC {\n  address public admin;\n  IMintBurn public token;\n  uint public nonce;\n  mapping(uint => bool) public processedNonces;\n\n  enum Step { Burn, Mint }\n  event Transfer(\n    address from,\n    address to,\n    uint amount,\n    uint date,\n    uint nonce,\n    Step indexed step\n  );\n\n  constructor(address _token) {\n    token = IMintBurn(_token);\n  }\n\n  function transferToETH(address to, uint amount) external {\n    token.burn(msg.sender, amount);\n    emit Transfer(\n      msg.sender,\n      to,\n      amount,\n      block.timestamp,\n      nonce,\n      Step.Burn\n    );\n    nonce++;\n  }\n\n  function transferFromBSC(address to, uint amount, uint otherChainNonce) external {\n    require(processedNonces[otherChainNonce] == false, 'transfer already processed');\n    processedNonces[otherChainNonce] = true;\n    token.mint(to, amount);\n    emit Transfer(\n      msg.sender,\n      to,\n      amount,\n      block.timestamp,\n      otherChainNonce,\n      Step.Mint\n    );\n  }\n}",
  "sourcePath": "/Users/christopherdancy/Blockchain/0chain/contracts/BridgeBSC.sol",
  "compiler": {
    "name": "solc",
    "version": "0.8.4+commit.c7e474f2.Emscripten.clang"
  },
  "schemaVersion": "3.3.1",
  "updatedAt": "2021-05-04T18:25:18.908Z",
  "devdoc": {
    "kind": "dev",
    "methods": {},
    "version": 1
  },
  "userdoc": {
    "kind": "user",
    "methods": {},
    "version": 1
  }
}