{
  "contractName": "MintBurn",
  "abi": [
    {
      "inputs": [
        {
          "internalType": "address",
          "name": "bridgeContract",
          "type": "address"
        },
        {
          "internalType": "address",
          "name": "admin",
          "type": "address"
        }
      ],
      "stateMutability": "nonpayable",
      "type": "constructor"
    },
    {
      "anonymous": false,
      "inputs": [
        {
          "indexed": true,
          "internalType": "address",
          "name": "owner",
          "type": "address"
        },
        {
          "indexed": true,
          "internalType": "address",
          "name": "spender",
          "type": "address"
        },
        {
          "indexed": false,
          "internalType": "uint256",
          "name": "value",
          "type": "uint256"
        }
      ],
      "name": "Approval",
      "type": "event"
    },
    {
      "anonymous": false,
      "inputs": [
        {
          "indexed": true,
          "internalType": "bytes32",
          "name": "role",
          "type": "bytes32"
        },
        {
          "indexed": true,
          "internalType": "bytes32",
          "name": "previousAdminRole",
          "type": "bytes32"
        },
        {
          "indexed": true,
          "internalType": "bytes32",
          "name": "newAdminRole",
          "type": "bytes32"
        }
      ],
      "name": "RoleAdminChanged",
      "type": "event"
    },
    {
      "anonymous": false,
      "inputs": [
        {
          "indexed": true,
          "internalType": "bytes32",
          "name": "role",
          "type": "bytes32"
        },
        {
          "indexed": true,
          "internalType": "address",
          "name": "account",
          "type": "address"
        },
        {
          "indexed": true,
          "internalType": "address",
          "name": "sender",
          "type": "address"
        }
      ],
      "name": "RoleGranted",
      "type": "event"
    },
    {
      "anonymous": false,
      "inputs": [
        {
          "indexed": true,
          "internalType": "bytes32",
          "name": "role",
          "type": "bytes32"
        },
        {
          "indexed": true,
          "internalType": "address",
          "name": "account",
          "type": "address"
        },
        {
          "indexed": true,
          "internalType": "address",
          "name": "sender",
          "type": "address"
        }
      ],
      "name": "RoleRevoked",
      "type": "event"
    },
    {
      "anonymous": false,
      "inputs": [
        {
          "indexed": true,
          "internalType": "address",
          "name": "from",
          "type": "address"
        },
        {
          "indexed": true,
          "internalType": "address",
          "name": "to",
          "type": "address"
        },
        {
          "indexed": false,
          "internalType": "uint256",
          "name": "value",
          "type": "uint256"
        }
      ],
      "name": "Transfer",
      "type": "event"
    },
    {
      "inputs": [],
      "name": "ADMIN_ROLE",
      "outputs": [
        {
          "internalType": "bytes32",
          "name": "",
          "type": "bytes32"
        }
      ],
      "stateMutability": "view",
      "type": "function",
      "constant": true
    },
    {
      "inputs": [],
      "name": "BRIDGE_ROLE",
      "outputs": [
        {
          "internalType": "bytes32",
          "name": "",
          "type": "bytes32"
        }
      ],
      "stateMutability": "view",
      "type": "function",
      "constant": true
    },
    {
      "inputs": [],
      "name": "DEFAULT_ADMIN_ROLE",
      "outputs": [
        {
          "internalType": "bytes32",
          "name": "",
          "type": "bytes32"
        }
      ],
      "stateMutability": "view",
      "type": "function",
      "constant": true
    },
    {
      "inputs": [
        {
          "internalType": "address",
          "name": "owner",
          "type": "address"
        },
        {
          "internalType": "address",
          "name": "spender",
          "type": "address"
        }
      ],
      "name": "allowance",
      "outputs": [
        {
          "internalType": "uint256",
          "name": "",
          "type": "uint256"
        }
      ],
      "stateMutability": "view",
      "type": "function",
      "constant": true
    },
    {
      "inputs": [
        {
          "internalType": "address",
          "name": "spender",
          "type": "address"
        },
        {
          "internalType": "uint256",
          "name": "amount",
          "type": "uint256"
        }
      ],
      "name": "approve",
      "outputs": [
        {
          "internalType": "bool",
          "name": "",
          "type": "bool"
        }
      ],
      "stateMutability": "nonpayable",
      "type": "function"
    },
    {
      "inputs": [
        {
          "internalType": "address",
          "name": "account",
          "type": "address"
        }
      ],
      "name": "balanceOf",
      "outputs": [
        {
          "internalType": "uint256",
          "name": "",
          "type": "uint256"
        }
      ],
      "stateMutability": "view",
      "type": "function",
      "constant": true
    },
    {
      "inputs": [
        {
          "internalType": "address",
          "name": "spender",
          "type": "address"
        },
        {
          "internalType": "uint256",
          "name": "subtractedValue",
          "type": "uint256"
        }
      ],
      "name": "decreaseAllowance",
      "outputs": [
        {
          "internalType": "bool",
          "name": "",
          "type": "bool"
        }
      ],
      "stateMutability": "nonpayable",
      "type": "function"
    },
    {
      "inputs": [
        {
          "internalType": "bytes32",
          "name": "role",
          "type": "bytes32"
        }
      ],
      "name": "getRoleAdmin",
      "outputs": [
        {
          "internalType": "bytes32",
          "name": "",
          "type": "bytes32"
        }
      ],
      "stateMutability": "view",
      "type": "function",
      "constant": true
    },
    {
      "inputs": [
        {
          "internalType": "bytes32",
          "name": "role",
          "type": "bytes32"
        },
        {
          "internalType": "address",
          "name": "account",
          "type": "address"
        }
      ],
      "name": "grantRole",
      "outputs": [],
      "stateMutability": "nonpayable",
      "type": "function"
    },
    {
      "inputs": [
        {
          "internalType": "bytes32",
          "name": "role",
          "type": "bytes32"
        },
        {
          "internalType": "address",
          "name": "account",
          "type": "address"
        }
      ],
      "name": "hasRole",
      "outputs": [
        {
          "internalType": "bool",
          "name": "",
          "type": "bool"
        }
      ],
      "stateMutability": "view",
      "type": "function",
      "constant": true
    },
    {
      "inputs": [
        {
          "internalType": "address",
          "name": "spender",
          "type": "address"
        },
        {
          "internalType": "uint256",
          "name": "addedValue",
          "type": "uint256"
        }
      ],
      "name": "increaseAllowance",
      "outputs": [
        {
          "internalType": "bool",
          "name": "",
          "type": "bool"
        }
      ],
      "stateMutability": "nonpayable",
      "type": "function"
    },
    {
      "inputs": [],
      "name": "name",
      "outputs": [
        {
          "internalType": "string",
          "name": "",
          "type": "string"
        }
      ],
      "stateMutability": "view",
      "type": "function",
      "constant": true
    },
    {
      "inputs": [
        {
          "internalType": "bytes32",
          "name": "role",
          "type": "bytes32"
        },
        {
          "internalType": "address",
          "name": "account",
          "type": "address"
        }
      ],
      "name": "renounceRole",
      "outputs": [],
      "stateMutability": "nonpayable",
      "type": "function"
    },
    {
      "inputs": [
        {
          "internalType": "bytes32",
          "name": "role",
          "type": "bytes32"
        },
        {
          "internalType": "address",
          "name": "account",
          "type": "address"
        }
      ],
      "name": "revokeRole",
      "outputs": [],
      "stateMutability": "nonpayable",
      "type": "function"
    },
    {
      "inputs": [
        {
          "internalType": "bytes4",
          "name": "interfaceId",
          "type": "bytes4"
        }
      ],
      "name": "supportsInterface",
      "outputs": [
        {
          "internalType": "bool",
          "name": "",
          "type": "bool"
        }
      ],
      "stateMutability": "view",
      "type": "function",
      "constant": true
    },
    {
      "inputs": [],
      "name": "symbol",
      "outputs": [
        {
          "internalType": "string",
          "name": "",
          "type": "string"
        }
      ],
      "stateMutability": "view",
      "type": "function",
      "constant": true
    },
    {
      "inputs": [],
      "name": "totalSupply",
      "outputs": [
        {
          "internalType": "uint256",
          "name": "",
          "type": "uint256"
        }
      ],
      "stateMutability": "view",
      "type": "function",
      "constant": true
    },
    {
      "inputs": [
        {
          "internalType": "address",
          "name": "recipient",
          "type": "address"
        },
        {
          "internalType": "uint256",
          "name": "amount",
          "type": "uint256"
        }
      ],
      "name": "transfer",
      "outputs": [
        {
          "internalType": "bool",
          "name": "",
          "type": "bool"
        }
      ],
      "stateMutability": "nonpayable",
      "type": "function"
    },
    {
      "inputs": [
        {
          "internalType": "address",
          "name": "sender",
          "type": "address"
        },
        {
          "internalType": "address",
          "name": "recipient",
          "type": "address"
        },
        {
          "internalType": "uint256",
          "name": "amount",
          "type": "uint256"
        }
      ],
      "name": "transferFrom",
      "outputs": [
        {
          "internalType": "bool",
          "name": "",
          "type": "bool"
        }
      ],
      "stateMutability": "nonpayable",
      "type": "function"
    },
    {
      "inputs": [],
      "name": "decimals",
      "outputs": [
        {
          "internalType": "uint8",
          "name": "",
          "type": "uint8"
        }
      ],
      "stateMutability": "pure",
      "type": "function",
      "constant": true
    },
    {
      "inputs": [
        {
          "internalType": "address",
          "name": "bridge",
          "type": "address"
        }
      ],
      "name": "hasBridgeRole",
      "outputs": [
        {
          "internalType": "bool",
          "name": "",
          "type": "bool"
        }
      ],
      "stateMutability": "view",
      "type": "function",
      "constant": true
    },
    {
      "inputs": [
        {
          "internalType": "address",
          "name": "to_",
          "type": "address"
        },
        {
          "internalType": "uint256",
          "name": "amount_",
          "type": "uint256"
        }
      ],
      "name": "mint",
      "outputs": [],
      "stateMutability": "nonpayable",
      "type": "function"
    },
    {
      "inputs": [
        {
          "internalType": "address",
          "name": "from_",
          "type": "address"
        },
        {
          "internalType": "uint256",
          "name": "amount_",
          "type": "uint256"
        }
      ],
      "name": "burn",
      "outputs": [],
      "stateMutability": "nonpayable",
      "type": "function"
    },
    {
      "inputs": [
        {
          "internalType": "address",
          "name": "updatedBridge",
          "type": "address"
        }
      ],
      "name": "grantBridgeRole",
      "outputs": [],
      "stateMutability": "nonpayable",
      "type": "function"
    },
    {
      "inputs": [
        {
          "internalType": "address",
          "name": "previousMinter",
          "type": "address"
        }
      ],
      "name": "revokeBridgeRole",
      "outputs": [],
      "stateMutability": "nonpayable",
      "type": "function"
    }
  ],
  "bytecode": "0x60806040527f52ba824bfabc2bcfcdf7f0edbb486ebb05e1836c90e78047efeb949990f72e5f6006557fa49807205ce4d355092ef5a8a18f56e8913cf4a201fbe287825b095693c217756007553480156200005957600080fd5b5060405162002d2d38038062002d2d83398181016040528101906200007f919062000425565b6040518060400160405280600881526020017f5a786e20636f696e0000000000000000000000000000000000000000000000008152506040518060400160405280600381526020017f5a786e00000000000000000000000000000000000000000000000000000000008152508160039080519060200190620001039291906200035e565b5080600490805190602001906200011c9291906200035e565b50505062000133600754826200016560201b60201c565b62000147600654836200016560201b60201c565b6200015d6006546007546200017b60201b60201c565b505062000519565b620001778282620001d960201b60201c565b5050565b806200018d83620002cb60201b60201c565b837fbd79b86ffe0ab8e8776151514217cd7cacd52c909f66475c3af44e129f0b00ff60405160405180910390a48060056000848152602001908152602001600020600101819055505050565b620001eb8282620002eb60201b60201c565b620002c75760016005600084815260200190815260200160002060000160008373ffffffffffffffffffffffffffffffffffffffff1673ffffffffffffffffffffffffffffffffffffffff16815260200190815260200160002060006101000a81548160ff0219169083151502179055506200026c6200035660201b60201c565b73ffffffffffffffffffffffffffffffffffffffff168173ffffffffffffffffffffffffffffffffffffffff16837f2f8788117e7eff1d82e926ec794901d17c78024a50270940304540a733656f0d60405160405180910390a45b5050565b600060056000838152602001908152602001600020600101549050919050565b60006005600084815260200190815260200160002060000160008373ffffffffffffffffffffffffffffffffffffffff1673ffffffffffffffffffffffffffffffffffffffff16815260200190815260200160002060009054906101000a900460ff16905092915050565b600033905090565b8280546200036c906200049a565b90600052602060002090601f016020900481019282620003905760008555620003dc565b82601f10620003ab57805160ff1916838001178555620003dc565b82800160010185558215620003dc579182015b82811115620003db578251825591602001919060010190620003be565b5b509050620003eb9190620003ef565b5090565b5b808211156200040a576000816000905550600101620003f0565b5090565b6000815190506200041f81620004ff565b92915050565b600080604083850312156200043957600080fd5b600062000449858286016200040e565b92505060206200045c858286016200040e565b9150509250929050565b600062000473826200047a565b9050919050565b600073ffffffffffffffffffffffffffffffffffffffff82169050919050565b60006002820490506001821680620004b357607f821691505b60208210811415620004ca57620004c9620004d0565b5b50919050565b7f4e487b7100000000000000000000000000000000000000000000000000000000600052602260045260246000fd5b6200050a8162000466565b81146200051657600080fd5b50565b61280480620005296000396000f3fe608060405234801561001057600080fd5b50600436106101735760003560e01c806375b238fc116100de578063a457c2d711610097578063b5bfddea11610071578063b5bfddea14610484578063d547741f146104a2578063dd62ed3e146104be578063ea134071146104ee57610173565b8063a457c2d714610408578063a5e99b8e14610438578063a9059cbb1461045457610173565b806375b238fc1461034657806391d148541461036457806395d89b41146103945780639647fe2f146103b25780639dc29fac146103ce578063a217fddf146103ea57610173565b80632f2ff15d116101305780632f2ff15d14610274578063313ce5671461029057806336568abe146102ae57806339509351146102ca57806340c10f19146102fa57806370a082311461031657610173565b806301ffc9a71461017857806306fdde03146101a8578063095ea7b3146101c657806318160ddd146101f657806323b872dd14610214578063248a9ca314610244575b600080fd5b610192600480360381019061018d9190611bbf565b61051e565b60405161019f9190612290565b60405180910390f35b6101b0610598565b6040516101bd91906122c6565b60405180910390f35b6101e060048036038101906101db9190611b1e565b61062a565b6040516101ed9190612290565b60405180910390f35b6101fe610648565b60405161020b91906124a8565b60405180910390f35b61022e60048036038101906102299190611acf565b610652565b60405161023b9190612290565b60405180910390f35b61025e60048036038101906102599190611b5a565b610753565b60405161026b91906122ab565b60405180910390f35b61028e60048036038101906102899190611b83565b610773565b005b61029861079c565b6040516102a591906124c3565b60405180910390f35b6102c860048036038101906102c39190611b83565b6107a5565b005b6102e460048036038101906102df9190611b1e565b610828565b6040516102f19190612290565b60405180910390f35b610314600480360381019061030f9190611b1e565b6108d4565b005b610330600480360381019061032b9190611a6a565b61092d565b60405161033d91906124a8565b60405180910390f35b61034e610975565b60405161035b91906122ab565b60405180910390f35b61037e60048036038101906103799190611b83565b61097b565b60405161038b9190612290565b60405180910390f35b61039c6109e6565b6040516103a991906122c6565b60405180910390f35b6103cc60048036038101906103c79190611a6a565b610a78565b005b6103e860048036038101906103e39190611b1e565b610a87565b005b6103f2610ae0565b6040516103ff91906122ab565b60405180910390f35b610422600480360381019061041d9190611b1e565b610ae7565b60405161042f9190612290565b60405180910390f35b610452600480360381019061044d9190611a6a565b610bdb565b005b61046e60048036038101906104699190611b1e565b610bea565b60405161047b9190612290565b60405180910390f35b61048c610c08565b60405161049991906122ab565b60405180910390f35b6104bc60048036038101906104b79190611b83565b610c0e565b005b6104d860048036038101906104d39190611a93565b610c37565b6040516104e591906124a8565b60405180910390f35b61050860048036038101906105039190611a6a565b610cbe565b6040516105159190612290565b60405180910390f35b60007f7965db0b000000000000000000000000000000000000000000000000000000007bffffffffffffffffffffffffffffffffffffffffffffffffffffffff1916827bffffffffffffffffffffffffffffffffffffffffffffffffffffffff19161480610591575061059082610cd3565b5b9050919050565b6060600380546105a7906126d1565b80601f01602080910402602001604051908101604052809291908181526020018280546105d3906126d1565b80156106205780601f106105f557610100808354040283529160200191610620565b820191906000526020600020905b81548152906001019060200180831161060357829003601f168201915b5050505050905090565b600061063e610637610d3d565b8484610d45565b6001905092915050565b6000600254905090565b600061065f848484610f10565b6000600160008673ffffffffffffffffffffffffffffffffffffffff1673ffffffffffffffffffffffffffffffffffffffff16815260200190815260200160002060006106aa610d3d565b73ffffffffffffffffffffffffffffffffffffffff1673ffffffffffffffffffffffffffffffffffffffff1681526020019081526020016000205490508281101561072a576040517f08c379a0000000000000000000000000000000000000000000000000000000008152600401610721906123a8565b60405180910390fd5b61074785610736610d3d565b858461074291906125b5565b610d45565b60019150509392505050565b600060056000838152602001908152602001600020600101549050919050565b61077c82610753565b61078d81610788610d3d565b61118f565b610797838361122c565b505050565b6000600a905090565b6107ad610d3d565b73ffffffffffffffffffffffffffffffffffffffff168173ffffffffffffffffffffffffffffffffffffffff161461081a576040517f08c379a000000000000000000000000000000000000000000000000000000000815260040161081190612468565b60405180910390fd5b610824828261130d565b5050565b60006108ca610835610d3d565b848460016000610843610d3d565b73ffffffffffffffffffffffffffffffffffffffff1673ffffffffffffffffffffffffffffffffffffffff16815260200190815260200160002060008873ffffffffffffffffffffffffffffffffffffffff1673ffffffffffffffffffffffffffffffffffffffff168152602001908152602001600020546108c59190612505565b610d45565b6001905092915050565b6108e06006543361097b565b61091f576040517f08c379a0000000000000000000000000000000000000000000000000000000008152600401610916906123c8565b60405180910390fd5b61092982826113ef565b5050565b60008060008373ffffffffffffffffffffffffffffffffffffffff1673ffffffffffffffffffffffffffffffffffffffff168152602001908152602001600020549050919050565b60075481565b60006005600084815260200190815260200160002060000160008373ffffffffffffffffffffffffffffffffffffffff1673ffffffffffffffffffffffffffffffffffffffff16815260200190815260200160002060009054906101000a900460ff16905092915050565b6060600480546109f5906126d1565b80601f0160208091040260200160405190810160405280929190818152602001828054610a21906126d1565b8015610a6e5780601f10610a4357610100808354040283529160200191610a6e565b820191906000526020600020905b815481529060010190602001808311610a5157829003601f168201915b5050505050905090565b610a8460065482610c0e565b50565b610a936006543361097b565b610ad2576040517f08c379a0000000000000000000000000000000000000000000000000000000008152600401610ac990612388565b60405180910390fd5b610adc8282611543565b5050565b6000801b81565b60008060016000610af6610d3d565b73ffffffffffffffffffffffffffffffffffffffff1673ffffffffffffffffffffffffffffffffffffffff16815260200190815260200160002060008573ffffffffffffffffffffffffffffffffffffffff1673ffffffffffffffffffffffffffffffffffffffff16815260200190815260200160002054905082811015610bb3576040517f08c379a0000000000000000000000000000000000000000000000000000000008152600401610baa90612448565b60405180910390fd5b610bd0610bbe610d3d565b858584610bcb91906125b5565b610d45565b600191505092915050565b610be760065482610773565b50565b6000610bfe610bf7610d3d565b8484610f10565b6001905092915050565b60065481565b610c1782610753565b610c2881610c23610d3d565b61118f565b610c32838361130d565b505050565b6000600160008473ffffffffffffffffffffffffffffffffffffffff1673ffffffffffffffffffffffffffffffffffffffff16815260200190815260200160002060008373ffffffffffffffffffffffffffffffffffffffff1673ffffffffffffffffffffffffffffffffffffffff16815260200190815260200160002054905092915050565b6000610ccc6006548361097b565b9050919050565b60007f01ffc9a7000000000000000000000000000000000000000000000000000000007bffffffffffffffffffffffffffffffffffffffffffffffffffffffff1916827bffffffffffffffffffffffffffffffffffffffffffffffffffffffff1916149050919050565b600033905090565b600073ffffffffffffffffffffffffffffffffffffffff168373ffffffffffffffffffffffffffffffffffffffff161415610db5576040517f08c379a0000000000000000000000000000000000000000000000000000000008152600401610dac90612428565b60405180910390fd5b600073ffffffffffffffffffffffffffffffffffffffff168273ffffffffffffffffffffffffffffffffffffffff161415610e25576040517f08c379a0000000000000000000000000000000000000000000000000000000008152600401610e1c90612348565b60405180910390fd5b80600160008573ffffffffffffffffffffffffffffffffffffffff1673ffffffffffffffffffffffffffffffffffffffff16815260200190815260200160002060008473ffffffffffffffffffffffffffffffffffffffff1673ffffffffffffffffffffffffffffffffffffffff168152602001908152602001600020819055508173ffffffffffffffffffffffffffffffffffffffff168373ffffffffffffffffffffffffffffffffffffffff167f8c5be1e5ebec7d5bd14f71427d1e84f3dd0314c0f7b2291e5b200ac8c7c3b92583604051610f0391906124a8565b60405180910390a3505050565b600073ffffffffffffffffffffffffffffffffffffffff168373ffffffffffffffffffffffffffffffffffffffff161415610f80576040517f08c379a0000000000000000000000000000000000000000000000000000000008152600401610f7790612408565b60405180910390fd5b600073ffffffffffffffffffffffffffffffffffffffff168273ffffffffffffffffffffffffffffffffffffffff161415610ff0576040517f08c379a0000000000000000000000000000000000000000000000000000000008152600401610fe790612308565b60405180910390fd5b610ffb838383611717565b60008060008573ffffffffffffffffffffffffffffffffffffffff1673ffffffffffffffffffffffffffffffffffffffff16815260200190815260200160002054905081811015611081576040517f08c379a000000000000000000000000000000000000000000000000000000000815260040161107890612368565b60405180910390fd5b818161108d91906125b5565b6000808673ffffffffffffffffffffffffffffffffffffffff1673ffffffffffffffffffffffffffffffffffffffff16815260200190815260200160002081905550816000808573ffffffffffffffffffffffffffffffffffffffff1673ffffffffffffffffffffffffffffffffffffffff168152602001908152602001600020600082825461111d9190612505565b925050819055508273ffffffffffffffffffffffffffffffffffffffff168473ffffffffffffffffffffffffffffffffffffffff167fddf252ad1be2c89b69c2b068fc378daa952ba7f163c4a11628f55a4df523b3ef8460405161118191906124a8565b60405180910390a350505050565b611199828261097b565b611228576111be8173ffffffffffffffffffffffffffffffffffffffff16601461171c565b6111cc8360001c602061171c565b6040516020016111dd929190612256565b6040516020818303038152906040526040517f08c379a000000000000000000000000000000000000000000000000000000000815260040161121f91906122c6565b60405180910390fd5b5050565b611236828261097b565b6113095760016005600084815260200190815260200160002060000160008373ffffffffffffffffffffffffffffffffffffffff1673ffffffffffffffffffffffffffffffffffffffff16815260200190815260200160002060006101000a81548160ff0219169083151502179055506112ae610d3d565b73ffffffffffffffffffffffffffffffffffffffff168173ffffffffffffffffffffffffffffffffffffffff16837f2f8788117e7eff1d82e926ec794901d17c78024a50270940304540a733656f0d60405160405180910390a45b5050565b611317828261097b565b156113eb5760006005600084815260200190815260200160002060000160008373ffffffffffffffffffffffffffffffffffffffff1673ffffffffffffffffffffffffffffffffffffffff16815260200190815260200160002060006101000a81548160ff021916908315150217905550611390610d3d565b73ffffffffffffffffffffffffffffffffffffffff168173ffffffffffffffffffffffffffffffffffffffff16837ff6391f5c32d9c69d2a47ea670b442974b53935d1edc7fd64eb21e047a839171b60405160405180910390a45b5050565b600073ffffffffffffffffffffffffffffffffffffffff168273ffffffffffffffffffffffffffffffffffffffff16141561145f576040517f08c379a000000000000000000000000000000000000000000000000000000000815260040161145690612488565b60405180910390fd5b61146b60008383611717565b806002600082825461147d9190612505565b92505081905550806000808473ffffffffffffffffffffffffffffffffffffffff1673ffffffffffffffffffffffffffffffffffffffff16815260200190815260200160002060008282546114d29190612505565b925050819055508173ffffffffffffffffffffffffffffffffffffffff16600073ffffffffffffffffffffffffffffffffffffffff167fddf252ad1be2c89b69c2b068fc378daa952ba7f163c4a11628f55a4df523b3ef8360405161153791906124a8565b60405180910390a35050565b600073ffffffffffffffffffffffffffffffffffffffff168273ffffffffffffffffffffffffffffffffffffffff1614156115b3576040517f08c379a00000000000000000000000000000000000000000000000000000000081526004016115aa906123e8565b60405180910390fd5b6115bf82600083611717565b60008060008473ffffffffffffffffffffffffffffffffffffffff1673ffffffffffffffffffffffffffffffffffffffff16815260200190815260200160002054905081811015611645576040517f08c379a000000000000000000000000000000000000000000000000000000000815260040161163c90612328565b60405180910390fd5b818161165191906125b5565b6000808573ffffffffffffffffffffffffffffffffffffffff1673ffffffffffffffffffffffffffffffffffffffff1681526020019081526020016000208190555081600260008282546116a591906125b5565b92505081905550600073ffffffffffffffffffffffffffffffffffffffff168373ffffffffffffffffffffffffffffffffffffffff167fddf252ad1be2c89b69c2b068fc378daa952ba7f163c4a11628f55a4df523b3ef8460405161170a91906124a8565b60405180910390a3505050565b505050565b60606000600283600261172f919061255b565b6117399190612505565b67ffffffffffffffff811115611778577f4e487b7100000000000000000000000000000000000000000000000000000000600052604160045260246000fd5b6040519080825280601f01601f1916602001820160405280156117aa5781602001600182028036833780820191505090505b5090507f300000000000000000000000000000000000000000000000000000000000000081600081518110611808577f4e487b7100000000000000000000000000000000000000000000000000000000600052603260045260246000fd5b60200101907effffffffffffffffffffffffffffffffffffffffffffffffffffffffffffff1916908160001a9053507f780000000000000000000000000000000000000000000000000000000000000081600181518110611892577f4e487b7100000000000000000000000000000000000000000000000000000000600052603260045260246000fd5b60200101907effffffffffffffffffffffffffffffffffffffffffffffffffffffffffffff1916908160001a905350600060018460026118d2919061255b565b6118dc9190612505565b90505b60018111156119c8577f3031323334353637383961626364656600000000000000000000000000000000600f861660108110611944577f4e487b7100000000000000000000000000000000000000000000000000000000600052603260045260246000fd5b1a60f81b828281518110611981577f4e487b7100000000000000000000000000000000000000000000000000000000600052603260045260246000fd5b60200101907effffffffffffffffffffffffffffffffffffffffffffffffffffffffffffff1916908160001a905350600485901c9450806119c1906126a7565b90506118df565b5060008414611a0c576040517f08c379a0000000000000000000000000000000000000000000000000000000008152600401611a03906122e8565b60405180910390fd5b8091505092915050565b600081359050611a2581612772565b92915050565b600081359050611a3a81612789565b92915050565b600081359050611a4f816127a0565b92915050565b600081359050611a64816127b7565b92915050565b600060208284031215611a7c57600080fd5b6000611a8a84828501611a16565b91505092915050565b60008060408385031215611aa657600080fd5b6000611ab485828601611a16565b9250506020611ac585828601611a16565b9150509250929050565b600080600060608486031215611ae457600080fd5b6000611af286828701611a16565b9350506020611b0386828701611a16565b9250506040611b1486828701611a55565b9150509250925092565b60008060408385031215611b3157600080fd5b6000611b3f85828601611a16565b9250506020611b5085828601611a55565b9150509250929050565b600060208284031215611b6c57600080fd5b6000611b7a84828501611a2b565b91505092915050565b60008060408385031215611b9657600080fd5b6000611ba485828601611a2b565b9250506020611bb585828601611a16565b9150509250929050565b600060208284031215611bd157600080fd5b6000611bdf84828501611a40565b91505092915050565b611bf1816125fb565b82525050565b611c0081612607565b82525050565b6000611c11826124de565b611c1b81856124e9565b9350611c2b818560208601612674565b611c3481612761565b840191505092915050565b6000611c4a826124de565b611c5481856124fa565b9350611c64818560208601612674565b80840191505092915050565b6000611c7d6020836124e9565b91507f537472696e67733a20686578206c656e67746820696e73756666696369656e746000830152602082019050919050565b6000611cbd6023836124e9565b91507f45524332303a207472616e7366657220746f20746865207a65726f206164647260008301527f65737300000000000000000000000000000000000000000000000000000000006020830152604082019050919050565b6000611d236022836124e9565b91507f45524332303a206275726e20616d6f756e7420657863656564732062616c616e60008301527f63650000000000000000000000000000000000000000000000000000000000006020830152604082019050919050565b6000611d896022836124e9565b91507f45524332303a20617070726f766520746f20746865207a65726f20616464726560008301527f73730000000000000000000000000000000000000000000000000000000000006020830152604082019050919050565b6000611def6026836124e9565b91507f45524332303a207472616e7366657220616d6f756e742065786365656473206260008301527f616c616e636500000000000000000000000000000000000000000000000000006020830152604082019050919050565b6000611e556028836124e9565b91507f43616c6c6572206973206e6f7420616e20617070726f7665642062726964676560008301527f20746f206275726e0000000000000000000000000000000000000000000000006020830152604082019050919050565b6000611ebb6028836124e9565b91507f45524332303a207472616e7366657220616d6f756e742065786365656473206160008301527f6c6c6f77616e63650000000000000000000000000000000000000000000000006020830152604082019050919050565b6000611f216028836124e9565b91507f43616c6c6572206973206e6f7420616e20617070726f7665642062726964676560008301527f20746f206d696e740000000000000000000000000000000000000000000000006020830152604082019050919050565b6000611f876021836124e9565b91507f45524332303a206275726e2066726f6d20746865207a65726f2061646472657360008301527f73000000000000000000000000000000000000000000000000000000000000006020830152604082019050919050565b6000611fed6025836124e9565b91507f45524332303a207472616e736665722066726f6d20746865207a65726f20616460008301527f64726573730000000000000000000000000000000000000000000000000000006020830152604082019050919050565b60006120536024836124e9565b91507f45524332303a20617070726f76652066726f6d20746865207a65726f2061646460008301527f72657373000000000000000000000000000000000000000000000000000000006020830152604082019050919050565b60006120b96017836124fa565b91507f416363657373436f6e74726f6c3a206163636f756e74200000000000000000006000830152601782019050919050565b60006120f96025836124e9565b91507f45524332303a2064656372656173656420616c6c6f77616e63652062656c6f7760008301527f207a65726f0000000000000000000000000000000000000000000000000000006020830152604082019050919050565b600061215f6011836124fa565b91507f206973206d697373696e6720726f6c65200000000000000000000000000000006000830152601182019050919050565b600061219f602f836124e9565b91507f416363657373436f6e74726f6c3a2063616e206f6e6c792072656e6f756e636560008301527f20726f6c657320666f722073656c6600000000000000000000000000000000006020830152604082019050919050565b6000612205601f836124e9565b91507f45524332303a206d696e7420746f20746865207a65726f2061646472657373006000830152602082019050919050565b6122418161265d565b82525050565b61225081612667565b82525050565b6000612261826120ac565b915061226d8285611c3f565b915061227882612152565b91506122848284611c3f565b91508190509392505050565b60006020820190506122a56000830184611be8565b92915050565b60006020820190506122c06000830184611bf7565b92915050565b600060208201905081810360008301526122e08184611c06565b905092915050565b6000602082019050818103600083015261230181611c70565b9050919050565b6000602082019050818103600083015261232181611cb0565b9050919050565b6000602082019050818103600083015261234181611d16565b9050919050565b6000602082019050818103600083015261236181611d7c565b9050919050565b6000602082019050818103600083015261238181611de2565b9050919050565b600060208201905081810360008301526123a181611e48565b9050919050565b600060208201905081810360008301526123c181611eae565b9050919050565b600060208201905081810360008301526123e181611f14565b9050919050565b6000602082019050818103600083015261240181611f7a565b9050919050565b6000602082019050818103600083015261242181611fe0565b9050919050565b6000602082019050818103600083015261244181612046565b9050919050565b60006020820190508181036000830152612461816120ec565b9050919050565b6000602082019050818103600083015261248181612192565b9050919050565b600060208201905081810360008301526124a1816121f8565b9050919050565b60006020820190506124bd6000830184612238565b92915050565b60006020820190506124d86000830184612247565b92915050565b600081519050919050565b600082825260208201905092915050565b600081905092915050565b60006125108261265d565b915061251b8361265d565b9250827fffffffffffffffffffffffffffffffffffffffffffffffffffffffffffffffff038211156125505761254f612703565b5b828201905092915050565b60006125668261265d565b91506125718361265d565b9250817fffffffffffffffffffffffffffffffffffffffffffffffffffffffffffffffff04831182151516156125aa576125a9612703565b5b828202905092915050565b60006125c08261265d565b91506125cb8361265d565b9250828210156125de576125dd612703565b5b828203905092915050565b60006125f48261263d565b9050919050565b60008115159050919050565b6000819050919050565b60007fffffffff0000000000000000000000000000000000000000000000000000000082169050919050565b600073ffffffffffffffffffffffffffffffffffffffff82169050919050565b6000819050919050565b600060ff82169050919050565b60005b83811015612692578082015181840152602081019050612677565b838111156126a1576000848401525b50505050565b60006126b28261265d565b915060008214156126c6576126c5612703565b5b600182039050919050565b600060028204905060018216806126e957607f821691505b602082108114156126fd576126fc612732565b5b50919050565b7f4e487b7100000000000000000000000000000000000000000000000000000000600052601160045260246000fd5b7f4e487b7100000000000000000000000000000000000000000000000000000000600052602260045260246000fd5b6000601f19601f8301169050919050565b61277b816125e9565b811461278657600080fd5b50565b61279281612607565b811461279d57600080fd5b50565b6127a981612611565b81146127b457600080fd5b50565b6127c08161265d565b81146127cb57600080fd5b5056fea2646970667358221220dbdbf6de2be2cb15a3d5f37119bbdc7e0985a02f731f80b5bd2a86584edf3ef764736f6c63430008000033",
  "immutableReferences": {},
  "source": "// SPDX-License-Identifier: MIT\n\npragma solidity ^0.8.0;\n\nimport \"@openzeppelin/contracts/access/AccessControl.sol\";\nimport \"@openzeppelin/contracts/token/ERC20/ERC20.sol\";\n\ncontract MintBurn is ERC20, AccessControl {\n    bytes32 public BRIDGE_ROLE = keccak256(\"BRIDGE_ROLE\");\n    bytes32 public ADMIN_ROLE = keccak256(\"ADMIN_ROLE\");\n\n    constructor(address bridgeContract, address admin) ERC20(\"Zxn coin\", \"Zxn\") {\n        // Grant the contract deployer the default admin role: it will be able\n        // to grant and revoke any roles\n        _setupRole(ADMIN_ROLE, admin);\n        _setupRole(BRIDGE_ROLE, bridgeContract);\n        _setRoleAdmin(BRIDGE_ROLE, ADMIN_ROLE);\n    }\n\n    function decimals () public override pure returns(uint8) {\n        return 10;\n    }\n\n    function hasBridgeRole (address bridge) public view returns(bool) {\n      return hasRole(BRIDGE_ROLE, bridge);\n    }\n\n    function mint (address to_, uint256 amount_) public {\n        require(hasRole(BRIDGE_ROLE, msg.sender), \"Caller is not an approved bridge to mint\");\n        _mint(to_, amount_);\n    }\n\n    function burn (address from_, uint256 amount_) public virtual {\n        require(hasRole(BRIDGE_ROLE, msg.sender), \"Caller is not an approved bridge to burn\");\n        _burn(from_, amount_);\n    }\n\n    function grantBridgeRole (address updatedBridge) public {\n        grantRole(BRIDGE_ROLE, updatedBridge);\n    }\n\n    function revokeBridgeRole (address previousMinter) public {\n        revokeRole(BRIDGE_ROLE, previousMinter);\n    }\n\n}",
  "sourcePath": "/Users/christopherdancy/Blockchain/0chain/contracts/MintBurn.sol",
  "compiler": {
    "name": "solc",
    "version": "0.8.0+commit.c7dfd78e.Emscripten.clang"
  },
  "schemaVersion": "3.3.1",
  "updatedAt": "2021-05-14T16:09:10.256Z",
  "networkType": "ethereum",
  "devdoc": {
    "kind": "dev",
    "methods": {
      "allowance(address,address)": {
        "details": "See {IERC20-allowance}."
      },
      "approve(address,uint256)": {
        "details": "See {IERC20-approve}. Requirements: - `spender` cannot be the zero address."
      },
      "balanceOf(address)": {
        "details": "See {IERC20-balanceOf}."
      },
      "decimals()": {
        "details": "Returns the number of decimals used to get its user representation. For example, if `decimals` equals `2`, a balance of `505` tokens should be displayed to a user as `5,05` (`505 / 10 ** 2`). Tokens usually opt for a value of 18, imitating the relationship between Ether and Wei. This is the value {ERC20} uses, unless this function is overridden; NOTE: This information is only used for _display_ purposes: it in no way affects any of the arithmetic of the contract, including {IERC20-balanceOf} and {IERC20-transfer}."
      },
      "decreaseAllowance(address,uint256)": {
        "details": "Atomically decreases the allowance granted to `spender` by the caller. This is an alternative to {approve} that can be used as a mitigation for problems described in {IERC20-approve}. Emits an {Approval} event indicating the updated allowance. Requirements: - `spender` cannot be the zero address. - `spender` must have allowance for the caller of at least `subtractedValue`."
      },
      "getRoleAdmin(bytes32)": {
        "details": "Returns the admin role that controls `role`. See {grantRole} and {revokeRole}. To change a role's admin, use {_setRoleAdmin}."
      },
      "grantRole(bytes32,address)": {
        "details": "Grants `role` to `account`. If `account` had not been already granted `role`, emits a {RoleGranted} event. Requirements: - the caller must have ``role``'s admin role."
      },
      "hasRole(bytes32,address)": {
        "details": "Returns `true` if `account` has been granted `role`."
      },
      "increaseAllowance(address,uint256)": {
        "details": "Atomically increases the allowance granted to `spender` by the caller. This is an alternative to {approve} that can be used as a mitigation for problems described in {IERC20-approve}. Emits an {Approval} event indicating the updated allowance. Requirements: - `spender` cannot be the zero address."
      },
      "name()": {
        "details": "Returns the name of the token."
      },
      "renounceRole(bytes32,address)": {
        "details": "Revokes `role` from the calling account. Roles are often managed via {grantRole} and {revokeRole}: this function's purpose is to provide a mechanism for accounts to lose their privileges if they are compromised (such as when a trusted device is misplaced). If the calling account had been granted `role`, emits a {RoleRevoked} event. Requirements: - the caller must be `account`."
      },
      "revokeRole(bytes32,address)": {
        "details": "Revokes `role` from `account`. If `account` had been granted `role`, emits a {RoleRevoked} event. Requirements: - the caller must have ``role``'s admin role."
      },
      "supportsInterface(bytes4)": {
        "details": "See {IERC165-supportsInterface}."
      },
      "symbol()": {
        "details": "Returns the symbol of the token, usually a shorter version of the name."
      },
      "totalSupply()": {
        "details": "See {IERC20-totalSupply}."
      },
      "transfer(address,uint256)": {
        "details": "See {IERC20-transfer}. Requirements: - `recipient` cannot be the zero address. - the caller must have a balance of at least `amount`."
      },
      "transferFrom(address,address,uint256)": {
        "details": "See {IERC20-transferFrom}. Emits an {Approval} event indicating the updated allowance. This is not required by the EIP. See the note at the beginning of {ERC20}. Requirements: - `sender` and `recipient` cannot be the zero address. - `sender` must have a balance of at least `amount`. - the caller must have allowance for ``sender``'s tokens of at least `amount`."
      }
    },
    "version": 1
  },
  "userdoc": {
    "kind": "user",
    "methods": {},
    "version": 1
  }
}